:020000042010CA
:100000009711F05F9381012797020000938282018C
:100010007390523093021000638402007350107C7E
:100020009702000093824211739052301301000036
:10003000631401001381010B732540F18142130306
:100040000040137101FF6385A2001A918502D5BF9C
:10005000970000009380C00763830000829073259F
:1000600040F181450146ED209300000063830000CC
:100070008290970200009382C20073905230032353
:100080000000F5BF000000008280A14673B3063077
:10009000914263C555001376350011CA230005004F
:1000A0000505FD15E347B0FE731003308280232061
:1000B00005001105F115E34EB0FC7310033082808A
:1000C000232003001103E34D73FE82800684970210
:1000D000F0DF938222F3638C02049702F0DF9382B5
:1000E00062F2F32740F1A14673B006300A8397030A
:1000F000F0DF938323318A9363037300D1376398CE
:1001000057021703F05F1303E3EF9713F05F938336
:10011000E398630373006D371703F05F130383EEF7
:100120009703F05F938303EE63037300513FA28054
:1001300082800000F322203473231034F323303400
:10014000D5BF411122C6000801003244410182801E
:1001500006849711F05F9381E1119302000063110F
:10016000550E97C200009382E22D1703F05F130330
:1001700063E99713F05F93836392638C6200635A21
:10018000730003A5020091022320A3001103E34A98
:1001900073FE97520000938262FF1703F05F130310
:1001A00063E69703F05F9383E3E5638C6200635A31
:1001B000730003A5020091022320A3001103E34A68
:1001C00073FE0F10000097520000938222FC170369
:1001D000F05F130323E39703F05F9383A3E2638C41
:1001E0006200635A730003A5020091022320A3005A
:1001F0001103E34A73FE0F1000001713F05F13039F
:10020000E389938301CB6357730023200300110319
:10021000E34D73FE1712F05F1302428811C202967B
:10022000177500001305652DEF704023EF70C02691
:1002300017850000130525B3EF704022EF703031B1
:100240000937FD5673B0463073B04634F32710308B
:10025000372704007D8F09C773B0363073B026305E
:10026000370704007D8F19C373B006184167130761
:100270008702F98F89CBF32700300967D98F7390F4
:10028000073073503000054597450000938585354C
:1002900017460000130646353120EF70C01CA280BF
:1002A00082808280411106C2F32240F113030000D4
:1002B0006385620073005010F5BFEF50606092409C
:0402C00041018280F6
:0C02C800D4021020F802102024031020A3
:1002D400411106C622C40008F16793850720B717A9
:1002E4000080138587A2EF70302B0100B2402244B6
:1002F40041018280011106CE22CC0010EFA0207BA8
:100304002326A4FE8327C4FE99C7B717008013854C
:1003140007A6EFA090020100F240624405618280CA
:10032400011106CE22CC0010EFA060782326A4FE93
:100334008325C4FEB7170080138507A6EFB0F066C7
:0A0344000100F2406244056182806E
:1003500050726F63657373696E67206C6179657243
:100360003A20696E3D25642C206F75743D25640A22
:1003700000000000382D626974205175616E746947
:100380007A65642054464C697465204D4E49535437
:10039000206F6E2053694669766520486946697604
:1003A00065312E004279205368776574616E6B2049
:1003B0005368656B68617200436C656172696E6752
:1003C000206172726179732E2E2E000050726F635D
:1003D000657373696E6720696E70757420666F72DD
:1003E0002073616D706C652025640A00537461721E
:1003F00074696E67206669727374206C61796572C6
:100400002E2E2E004170706C79696E672052654CFB
:100410005520616E642052657175616E74697A69E8
:100420006E67206669727374206C617965722E2E16
:100430002E0000004C61796572312052654C5520C8
:1004400072616E67653A20256420746F2025640A06
:10045000000000004C61796572312073616D706C31
:10046000652061637469766174696F6E733A2025E3
:10047000642025642025642025640A005374617279
:1004800074696E67207365636F6E64206C61796553
:10049000722E2E2E000000004170706C79696E671C
:1004A0002052654C5520616E642052657175616EF5
:1004B00074697A696E67207365636F6E64206C611E
:1004C0007965722E2E2E00004C61796572322052B1
:1004D000654C552072616E67653A20256420746F03
:1004E0002025640A000000004C6179657232207397
:1004F000616D706C652061637469766174696F6E9B
:10050000733A2025642025642025642025640A0090
:100510005374617274696E672066696E616C206CD9
:10052000617965722E2E2E004F7574707574206C73
:10053000617965722076616C7565733A2000000000
:10054000256C64200000000046696E64696E6720B7
:1005500070726564696374696F6E2E2E2E000000E0
:1005600050415353000000004641494C0000000038
:100570005072656469637465642064696769743A7C
:1005800020256C642C2054727565204C6162656C6A
:100590003A2025642C205374617475733A202573B6
:1005A0000A0000000A0000005374617274696E67EB
:1005B000204D4E49535420696E666572656E6365C1
:1005C0002E2E2E0003F402FF08F4E6F2FDF2F509E8
:1005D000F9E4FC04FC051506E8FAFC2809F2ECEC49
:1005E00006F501FDFC14FA10112504FD0BE622119D
:1005F00000FE211D01F90012FFECFAFC0A190DFBA7
:10060000F6DBE40F07090013F4060D0A0BF019FFDF
:10061000EF0A0500F9F7F6E2080AFB0A07101213C1
:10062000EBF2BCDCFA0CEFFC0D0117FAD6EBB5D7F8
:10063000FCF1FCF6051D1AFCE5ADC000F710FF0D3E
:1006400009130EE7A0A80F0DF7E81E11182404A245
:10065000A802EBF7F4FA03060EFF0FE0050100F322
:10066000EFDCFEEEE6E106E9E3F0061BEC28FDFC1C
:1006700009FCEEE1F0FE12F1060B0CEB1C19FBF489
:10068000161D25FBFDDE1EF1E0D2E0060E18121B42
:100690000C0E0F02F5FFF806EEEEFC190917F4D662
:1006A000EBF706DE020AF9F2FEFDE50A09000B018E
:1006B000FDF9F0FA0CF8E90C1009FDF91821D71F23
:1006C0000D0F101D0B0F0F0E21282023FD05060A0C
:1006D000240E30F5F41CEAFBF310FC00F7040A07C3
:1006E000F2220D06080803F0F3FA052601EC0BF3DD
:1006F000F221D4E1E1F00CF4DFFFF9F9DDD8F4FCEC
:10070000F203FCFBF8080B07ECF3FF1009F7EC0011
:10071000F9261C2EF4FFFAF6F40E0703FCEC111A6E
:100720000B00DAFD0E1B0A00EFF4F6D30DF4F20213
:100730001F170E020F10EFF7F6DA03021304F5038A
:1007400020F50B0701E608F3E6161806FEFA112A53
:10075000F6F0FFF1F0181CEF0FF72741F93707FF0C
:1007600014F9FBFA2D0C19000BFB1D09DEF1FFF744
:1007700013232B000601FF07F50C021A0CFC0BFBE0
:1007800005FD03FF0417021CF50E0BDA05F5120632
:100790000C02FFF90E1015E10ADBFC1307FD08E956
:1007A000EDFDFAE8FBD1E9FE221B1622FCFCEC0F62
:1007B000FAFAD1E90908020A1AFBEDDEF41103F690
:1007C000F20807212211EDC9F917FE0806F2091BEC
:1007D00017EEE6EB0B09D8EB0612050E18FDE9DE65
:1007E000FAD9FA06F8EFF90C1DF3CFD301DFE5F1E2
:1007F000EEEE031419F1F9EDF518F1D90115021710
:100800000B09E6FA01F704030808FBF60009F4F9FE
:1008100009150312F1EAF81607F1F2D11006F7F103
:10082000FCFDF60300EFD1C00D0903E2EEDFEC069C
:100830001CEECAFA0305F607ECEFE52BF4F50621EA
:100840000C0F0DFAEAE3130FE5EC02DAFCEE0A1ADC
:10085000FE0B1F0B0F0002FC04F321040A00101012
:10086000EF180CD205041A02EE110315030F0C2425
:1008700001FB2217DF08030900EFF1B7F5EE0616BA
:100880000A0DE9F1F1E3E9DF06D5F40A0508FE02F5
:10089000FDF7C403F3F30CFE1BFC1221F4FA0CF970
:1008A000FC02050D211F11060D020CF0F4041328A3
:1008B00012211AFFFB01F6ECED032022122DEBCFE3
:1008C000BEE9E7E5F8F91B191D02D1F2FE050BD8C8
:1008D000001D090AF3F0F308FEF4100A07071406D6
:1008E000F107F2D80B0016220BF3EE00090CF7F01B
:1008F000F70314FC02ED0501ECE5FD0B01F5F3191E
:100900000AD6F3EBFE02031407F82002FA031618C6
:10091000180B0D001C160609FE44EEFEF81CEEFF37
:1009200001FDF6F408FDFD05030405EC00F2FCF8FA
:100930000A08D9EDF7E5E6E1F90513050EFF111AEE
:10094000120F201C1A012111F512271E240B06FC80
:10095000F3F4FC04F717F509F3D3D5E7FFF4F20439
:10096000F3E7DED5EC0C181E0C0C0001FAEDE3F1F8
:10097000FE13010B0912F218FADEE4E7D7F9DFFFE4
:10098000FF010121F825250F0AF0F60B081AF3F2F2
:10099000FE131A18101C1702ED09020D0D0FFBF3C0
:1009A000ECED06FC00FFEE1C0AF4E6FC22FBF8145A
:1009B000F62DDE06F6060C01F4020DF10412F60423
:1009C0000909E6EE0C1209F4F010061B05000B0AEB
:1009D0000BFDE5F1FA0B0BE800F3080C12FEE9F74A
:1009E0001711F10BFEEF1F1606F0F90107F8F137AA
:1009F000F6010D0E0EF407110919FD090707121B68
:100A000003122212101D3723F92322E4E00B1013E6
:100A10000DEBE7FB0D3701DEF801FFF3E4DFE6EE57
:100A20000B15FBE0F607EAF7E7EAE4E108E7F2E78F
:100A3000F1F20AFDF91014D504EEF1BF0F1FD2290F
:100A4000DED0E0FBF60C0FFFF9F60EFB0C03F8F717
:100A5000FEFC0001FDFA1100F5F9D7FA1A25FB1585
:100A60001F04001C17FA0BFAF5120AF5060B1811F1
:100A70000BF5103107D5F1F9FA101005EC02F4224C
:100A80000CDFED1B2114FBFC02F60E180C373C3674
:100A90001C03E8F40700F00A05281F0A0FF5D7F633
:100AA000F103FBEF00FC050D08F1DAEBE6D4DF21E2
:100AB000F4F01B1A07FBFAF8DEE2EC220B02FE143C
:100AC0000B0908F0F6EFF0DB01F8F51B1E02F2054A
:100AD0000A13F4F90B03F7FBEF051700090805F7F4
:100AE000FB230D150A212D12021709FA2000FCFF25
:100AF000120E121A090308FD0CCFF00CE8E8E9F811
:100B00000E1BFB1702EF02EDC9BCE40CFAFD0F2A25
:100B100001D1EBFEF7030B0AFCFD0E14002D20FEA5
:100B2000F7F4FEEBE7FB08E0F6E3F2E6EA020AF18F
:100B3000F7F3F3EE00DA050EFDFEF4DDEFFD120B28
:100B4000FFEBF404F6E9E507040F27F7FF1C001696
:100B5000FE02F60908FDE7E3FE1906DAF00E0FF9CA
:100B60000BF42D0AF80DFD05FA031B250A09F703FE
:100B70000402FE04FF0DF4F4F7E8CE1609F81C0B8E
:100B800000070AFAF9EFE3300FF1F700FFF9030F5E
:100B900011EEEBEEFEEEE8FDF4FBFE051BFBE2CBF7
:100BA000F6F700F3F30300152D1103EDF50CFDF33B
:100BB000F7091B220F0618240203E302F424191874
:100BC000030AF308F7DCE0DC05340509F502EEDD85
:100BD000FBE7D6F00716140E0A13EA0AFECCE50668
:100BE0000710F3FAF20FF3DA03CBC5FAFEEF01F2C6
:100BF0000D0400F30AF90B0014FF021C0BF708FFA9
:100C0000FFEFFA212611E9D4DA080C0AF8D50E1FF5
:100C10001A0EF2D606161C1606DCF63315E4C2E9E7
:100C20000901FBFAF6F8FE3732E7C2E6E1F60509FC
:100C300003EB07061018F2FBF8FCFF2D07FD170366
:100C40000104F703F1F8FF0002100806FAFBF60EA4
:100C5000F5FD001B03010B060DF412F6F90E02154B
:100C60000AEBFCF307040D03FE0C0EF6F40C141A49
:100C7000F00E05FC0FFBE41EFC0002E11604F6E199
:100C8000EF19E90C060DFCFF02FAF4F70C020B0752
:100C900008F714FA08121810170C22F8FAE7FF07E1
:100CA000F408ECE9F3FC0904FB171807FFFCE9EE74
:100CB000F6FBF41307071FFC0E000615FAF9F2E61F
:100CC00009212006F4130AFCF6FF020F060D0FDFC0
:100CD000E61204FC03E2E4F3F80B05F8E4F7040081
:100CE000F6F924FA0CF719E9EE0E0E0A0224F516AD
:100CF000080DF90111051C09FF0D0303010C0A027F
:100D0000190A0D0E04080B39FBEED3F2FAC2F2ED0C
:100D1000121207FEF6FB08090009F7E5FCFEF602D1
:100D2000F81A361EFC1401F8FDF70128110E0FF910
:100D300005F6070CFE05FEE10C0A30F0EA150D146D
:100D40001C2422D404312D0FFC06FDE7E8032712F2
:100D5000F9FA1A1A07FCF3FBFD011311F60C0C2922
:100D60000413D1F706030EFDFA0FFEE702EFE8F9D0
:100D7000F20D28FF0501F4ECF10AFCE8D1051A0890
:100D8000F91EF0FF0D04EBEADDF81C1D05F506FC6D
:100D9000FEF6F20502060700FFFCE1F0F00205ECAA
:100DA0001904FCF5F706F109FEFF0AF202FFFFFA4B
:100DB000F70A0E06C8D8DFFC0B000E08FF0310046C
:100DC000090EF5EA020BF7100337F90D11151E1283
:100DD00003F9F51B09FE1513101906340713051F37
:100DE00000DB04FFECF1EBF5F8F920FDFBF0F6FA7F
:100DF000FBEF10E6E1011C09F8EAFA03100104E92F
:100E0000F60D1400FC1006011EFAEE1FF0F500F7B7
:100E10000B0FF806F116F91D1204F90FF40EEAE6AD
:100E20000A180AF6FDFAEDCAF3050EF8F90609F5F7
:100E3000F0F9FD00FB0A01FCF5F7E4EF08FF02FF03
:100E4000F70510F7F4060A0BFA09EEF8F2050D089B
:100E5000FDFFF4FEFBF8F80109F70C0B02FBFD0E99
:100E600003FB07F2FF0814060E24FA0EFD0002FF32
:100E7000FA23060D02100AFF100F0A36FE03181F90
:100E80002E1E17090F0903E204BE98CAE5FBF5FD03
:100E9000F7E9EBEA09C1BEAFBBD3DCDDF4FAF0D46D
:100EA000F7121E05FFF5F5FDF0E308F80818162106
:100EB000130E07F6F703E9EC0B080209F20F170A05
:100EC00000F3F9040B06000005FF0EE000FBFFFC39
:100ED0000107E3DBEBF0F903FF00061A13211717F4
:100EE0002206F316150F03F2070C0808071F0E0061
:100EF0001E181517051600172AF30B0100031A30E8
:100F0000051A1FDCE6E40BE8FDE8D705F80BF3F75C
:100F1000040602FAF9EB0D0D00F0F208160BF9FBCE
:100F2000EE040AF50803EA060D02F5F90E011A129D
:100F3000FE0604F8FCF1FBF90BFAE80008EE0209E2
:100F40000C0607F7F4FFEA0F00FD0DF4ED10E8F8CA
:100F5000FBF90EFFFFFBFBF7010BF0EEFC06FDFDBE
:100F60000BFFE702F5FBFFF9F6ECFFE6D90CDC001E
:100F7000F7EC041503FD02E1EE12F7F2E3EC010ACF
:100F8000EAF7FEFEFB0F1EFFFDE2BCE0E10AFD17E3
:100F900008F4100D011402F9FF0F1AD4F307061C10
:100FA0000902260601F2E7DD08F0E1011C2E130616
:100FB000EBE7E0ADFEFBDDFA0017041D0E05EE03C6
:100FC000FFF60E0AD7F9FDFE1A09090803F20AFB1B
:100FD000091303050F1C111EFE070719F80F01174F
:100FE0000CE90CF9FDF5030D0902FE050BFDFB00F4
:100FF000F71008F114071B190D1021F101FAF3FD88
:10100000F81313120C10EE19F3ECE7D4D2EF10051D
:1010100005F7E017FFF6AFCEE82109F8F5E0E1E8C3
:10102000FA09E0F6150E040E1303D4D5091BF4EFEC
:10103000F9060E1409FF093509ECF5F7EBFAF80883
:10104000170C1E1C0A1FF901051915FFEB061504E4
:10105000020304F7001DFC0A041603FE00E6FAF979
:10106000040D0B130D1F0BDF070BFF0E081E031AD9
:1010700005FC07FEFEFAF40AF4FDFBEAF704F905A5
:101080000A361618191A08FA0209012D072817F44A
:101090001B07F4F8E710070EF301E0E3CFD9E6EB06
:1010A000FFF6FAFAF9C1E3FE0AFB110809F00CF6A3
:1010B000040D110700F512F50208F4FA0D0F0AF3FA
:1010C00002F502FFFB0112F2F800E60BFEFDE1FE65
:1010D00014141227FEE1FE090BD6D7E9090D283FAB
:1010E000F4FDEFF20B0D070802FAFE0D04E0F50522
:1010F000183F2B1E1203DE9D0D03FE0A020D250F65
:10110000E9E2DDF5F8FE04F90301FCFC010109FA4E
:1011100003E3F405F5FCEBEBE3E7F70CFBEDFDE295
:10112000EFFFF3FE0C1D11E9FED6F5FC1C040314C1
:101130002C15130F0B1DED161703FB1AEEE4D4EB61
:10114000080C00101515FDE6F6F5EFDCFFF5EA0BCF
:101150002418030EF7300C14F50E0BE7F90EFBFB09
:101160000B1B140E0CFF03E6FD0BFEFE170D01D446
:101170000709E408021808190E04E4190D0000F22A
:10118000F9040A14FCD8C8F80231DEF411FC0E028E
:10119000FAB9B4F6FF03FEF5F2040802FE0202FB00
:1011A0000E0B240D03000412141019230E041B1C33
:1011B0000C141D0B0A01EEF20F05F7091D140106B0
:1011C0003518FCF908F90501F7F7171D27EF0D325F
:1011D0000A270EEEE9E7E4F2ECF619F2F909FB153D
:1011E000FBECE7000B04FD0100FDEB1919E8030E11
:1011F000020622FE09DA0207F6FFFB05F60D0AF8E1
:10120000F718F8E9DBC0DB070D0FFD1FFD06010332
:10121000F8DBEEFFF600F80EFF15ADF50C080EEF4B
:101220000DFE05FAF3FE080BEDFFFC27FCFFF705AA
:10123000F7051406F6E2FE1F1D360B0EE7F0EDEE85
:10124000E9E5F203102F3BF9EBDCEFEB10F4DFEDF7
:10125000FE252118FDE6FC0EF2CFD6FC111E2A1841
:1012600004F4FE0F06F8EF021004F1D304F90609A6
:10127000F60107150AFDEF0F0B1C0EF40CFCFD0B1D
:10128000E6F5FE31081006FE02FDFF0F06FFFBBB70
:10129000F6F202F9FB090AFCF6F30CF4F4FA030384
:1012A00004F80703FEF4F0DB07F206F50F0A01F17C
:1012B00002E91EFC03F7F4F8FB05F51106050B091E
:1012C00007E1E919F30504061812021CF7F7F6FF07
:1012D000110D03FA0FF5F8EE1400E5110DEF0E07EE
:1012E0000A180B0807DE0003F01211F611FB0C2898
:1012F000F7F90B0710250F01FEFAD6DEFCD1DCF260
:10130000F2012004FEFBDBF70CD5E0FDDFFA0E0D49
:1013100003FFF605F6E3EFEBE90E00F8E6E2F80C62
:10132000FC0CEAF4E9EEE5E5F408FCFAF4FC040749
:101330001CFC17181F1EE4E403FF04DB0AF501067A
:10134000F501C70DF503FE04FCF8F81604EA020DDA
:101350000EEE2107E4F5F511201B0AF8FCE3111845
:10136000EEDEF91D0F1501170CEC120503F1FC1050
:101370001E0E08D9FA0E0BFC04FAFFFE09001ACE65
:1013800002020AEF03070D111B0CF4E0FEF50F003B
:10139000060206FEF9F2F61FFED0EA0C0A1AF5FF65
:1013A000EF08131F0BD8E40B080AECEBEB05DB2C62
:1013B000F5FB0D1911EAC2E9E4EBF60E05CCE2EEFD
:1013C000E5F4E8DF00F3F7F2FDDB091EFA04CED006
:1013D000F002ECF4FD04FBFEFA0014FCFDFE0A0929
:1013E000112F0F17071503F0F7FD0F10101D050241
:1013F000001001F508030C0CF6F9FFF20EF90BF5DD
:10140000F60609F90B1502FF0A0A0D03F9FF1BD5B1
:10141000070CFD080A11FA07FE1717F804FF010769
:101420000AF10D18231D0603F9DD01211D011B1210
:10143000161429FF02F50111000909F1EFF5D8F69C
:1014400004E3F9F2E106F7EFCBD8C4EC0A00DADDE9
:10145000F9E4FEF0FFF2C6DDF503F1E607FE130343
:1014600003F1D109F7FD02FCF8F715E003180200BB
:1014700006EF331B25191E010A0E1DF0170EF7F398
:1014800002100C0D181B0A0E0AE0EFE5EAF5F0E673
:1014900006FCFB25F325080809F6F2F3FAF7EBE65C
:1014A0000B2E04FFF0E5E8F7080BF0E006EAE7EAA8
:1014B000F1F6F1FAFD01FCEC08DADA0F00F6F2FBC6
:1014C0000700F6CF020E03070109F5E5CFBDB3A96A
:1014D000F90DFA1204EE0700F304EB0CFAFD0EEF1F
:1014E0000A0C013319072D11000C060801FF06F83C
:1014F000121BF901FCFEFB07EC0D0601FA00FB0DC7
:101500000C05F60703F603F10E0509EF0A0119EFC2
:1015100006FFF7F2050A0505110EF5FCF5FCECFCDB
:10152000FE132D250BD3D5EDFE2308D9120D132D57
:10153000FC03F5172510E6D2F7130822FDF9131B5B
:10154000F8F3D7E705FBF1CDFCFA090CF8EEEBF068
:10155000FA011306F60BF2F7F4ED071D15221C1223
:1015600001FDF1FEF51B0C050D05261C0A0A0CFFFA
:101570000000E5FFFCF3073DF8FF18E9F7F9F60274
:10158000E6EB10080A0B02FF0D0CFCF30217F4F94E
:101590000510141BE9E4F1F30D0F110EFFED181106
:1015A00007D6D80DFF060003EF0A27FE0CE1CC108A
:1015B000F2F6F8040CFF0D08130710F9061724EED5
:1015C0000611E7E8061D07DBE91515EB0AF10B0527
:1015D000FA030910F1D2FA17F7F30805F30B18F71D
:1015E00008DCFEFCF40C0410EF080400030BFF0DF4
:1015F000F6140CF1EE17080714F40AFE0715141A76
:1016000001ED0B071A19091EFEE0FBEEE50704E3E6
:10161000DE011FFBF9F6080203F9F30B00FCFAFAEE
:10162000F208FB05150206FC0F072F02F90F08E66A
:10163000DF0FFE0E1EFB0A0EF5F6EFDAE7FF0AE9F2
:10164000EDEBD90507E813FE02FBFA1CFA0AF6E1F6
:10165000FBF31D18ECF804141E09020AFF17FC0C1A
:1016600005F9111417131204FAF4022C07F3150CE0
:1016700020151E22F3F2F92403EDEF03E80318F618
:10168000F4F1F408F9FF07E9F207FA0F04FFF00597
:10169000FE0B0D0E10060D04FBE20DEE090A18F507
:1016A000FA13FF0802FBFEFAFFFD0711080C0BF806
:1016B000F5D1C0A4E0EF0DFC0110FDFD0B18D3B96E
:1016C00001FD060011FF19F9FDDEB7C71C2B0FDB6A
:1016D000D8DAF237F6FBBE071D1B0CF1FDE814014A
:1016E000FEDCD3021F1A1C06E4180B2A08EC0C219E
:1016F0001FFBFFF5FF001C1505DF0229F1F2EFFFCC
:10170000F0F9FF0D03F41B01ECEDDFF8FE02FFF131
:10171000F6090406F300FDEAF7F80B04FD0D0502D7
:101720001F00EFE6E7F2D9060B0A081302FC041AC1
:10173000F01A09FB01FAF70A0106021DF9EBFB0892
:10174000062D10090B03E3F7FBEA16FE1CEAFC1753
:1017500002F9FD010CF41F010AF7091F101BF9ED36
:10176000FF111C00FD26312713F6C7EDF80513EE17
:10177000FC1D16FAE3CEFDFB06EE0015F91607F187
:10178000D2E304090705E2F40A08DFDDF2FA0013E8
:10179000F8F8F4EAF4F7E5DEEAFAF402FDF806F305
:1017A000091318FD0AEBE8EE050E0BFBFD05160903
:1017B00010040908FA0A05B208EE0608F307F71341
:1017C0001AFF0B0609F80E0603FBF72210F0F8F4D7
:1017D00003EEB4F40AFA07001D230FE404F0E4FA60
:1017E0001A0101060B0D0DF0F5F4100CEAFC0E12B7
:1017F000100800D90BF4F8CDD4F62215010BE8122D
:10180000FCE4DED7072D0FF4F9E0FCD6F5F5DC2279
:101810002FFA0702FFF512020AD1CD071506FE13B3
:101820000303F706FFBBE4FF13EDFF0FFFFAF12EF2
:1018300002ECE3DDEC120A2A0B0A0FE5FAFC0F05B5
:10184000F506FE0BFC07E8F0FF07F700F90907FCB7
:101850000D0EDBF802F3010BF0FC1E1EFEFAFA017E
:1018600002F81CFD180207FAFFEFE0CEFDE402F9D2
:101870000710FF0FE2EDE7D20D151C120A14111329
:1018800007DAE2DEF8FCEF1113010825ECBDDE09F2
:1018900001F4EEFFFF163C1D04C1E31FFEEF240818
:1018A00014151F01CBC8011E02E00B0B0C0316DF41
:1018B000EAF1F124F90B17F910F8E7E7C8EFF5EDB5
:1018C00001F40D0E01F6FFF5F4EAE7DF0BE7FAF994
:1018D000F7090CF9FDF608C1003DF3220BFC1108D5
:1018E00014FCE8F60802FFFA01FFF7EC05F904FB27
:1018F00000BEF0D5EBFBEFFAF8EAEF3AECFFF1E9C6
:10190000FCEFFF0F07FB1CF3F000EFFF0D0C0426AC
:101910001F29311B08F91CFCEDECE2D6E7D3EC14CF
:1019200009F30304FE03F5E2D6A39C810B04F60938
:10193000FA05080DFAF69CE007F30C061FF00AF210
:10194000F202F90D0C06010D11140209FEF60BD579
:101950000DF4081311F803010918FE02FEEE0E1330
:101960000B0A030D010C21E7FE3AFC0AFF0FFDFAFA
:10197000FEE7F9FAF4FB0805090607DEFE13FAF69E
:101980000509F3EDE7E81DFCF5F502FC0BE4FAD9D7
:10199000F4FD010EDDFCF5FC0BFEE7D8E8FF1A09AB
:1019A000030B02060DE2FFE807F2E3E6DCF0E806CF
:1019B0000CF0FC17FD13EFF6ECEAFC2E070C0E17EB
:1019C00018FC0207051929E0F70C280D07F70A0D86
:1019D0001A0929D70912171F05061F222D0F170EE6
:1019E000FD2103FC0D12FC1304FDFAE6F3FDF6F2F3
:1019F00005EBECF00C132D020D1FE70B08FD03B6F1
:101A0000F5141E08FEFFF4F603091415FCFE070585
:101A1000080DECF5040305F4F8160E3210E2EEF3AF
:101A2000081304F504151E020C19FE01F807EB0A51
:101A30000F1B1212F712FF0D1003E6030C150D0910
:101A400003F9FB0AF500DFDE0E0B2225070FE90381
:101A5000FFF8D7D8121D200DFBED07F9FC03C9FDD7
:101A60002733161DF9E9EFEEF2D5DA26180700ED57
:101A70000008FEDBD4031C120A0B1209F4ED01F975
:101A8000100F05041912152FFB12E50A02FF07FEBD
:101A9000021226020CF9FC0A03FE0D11040BF3FFDF
:101AA0000E47E8EC0109E7F90E12FDEFFFEDEEF34A
:101AB00008FC0E0B16F5102DF90C15FC1217FAEF99
:101AC000F306FC16F5E62105FFF8232314F9FA02C4
:101AD000FB1003100003151D1BEDF5F90B13F4EAC1
:101AE000E7E10232FDD1E70BF4D1FAEBF10808FE91
:101AF000F0ED05FFF6110DFC07FF0308C9FB06EB2F
:101B0000F7F9080910F70101FEE11E02F91E1F0C8A
:101B1000F3EDF9FEDB00FD070B2603EAE1EBEE0730
:101B2000F6E5F107F7F9090704030CF008100DFBBF
:101B3000050EFEFF2B210AF3E2E1F6BDE3EB172EC3
:101B40000EEB0106270FF0F5F91012EB07FC1A0E49
:101B50000915FFFB0702F5080F0AEDEFF9EA201857
:101B6000F622E2FAF806F9F1E3EF03FA070D0501B0
:101B7000ECFBDB11070509EF031A05F2E8E0FA0FA9
:101B80001610FD100B3508F1110306E5FBFD1D08CD
:101B9000FE110C08F80DFEF707FEF701FDD422FE3A
:101BA000F9001B02F9F01E1FF9AD08041D06DCF256
:101BB00016F2F3FF0205FF05F7FE0FDCF113FDF54A
:101BC0000806D1E4EDF2FDEDFC0AF1E51220000B70
:101BD000F7FA0904070CFCFEF91C192116EC0206A1
:101BE000FB0505F4F71731F3F9D5F005E7EDFEEF46
:101BF00007CCC5CEBE02F9F8EDF1E8F2FDC5ABFCAD
:101C0000071608F10CFF092B05020A1A1111070724
:101C10001AFAF7FA071B08F010021E1AF10907E07A
:101C200009141413FE010F020A03192C04FC030803
:101C300001FC010509180B080B24FE0D1213FCF61C
:101C40001306F6FBF90702FDFC08FFFC07FBF6FF95
:101C50000BEF071314F7F9F8F400F411090816E76D
:101C600003F5030E0310FCD6FE0DF90E1104FBF56F
:101C7000F7F6060303F4F7E6E4E2F5FB03FF01F7EA
:101C8000F6F2F1F6F003F910E501F02A09262B1817
:101C9000170D0B060DF61406F9313B4B3B361B06B0
:101CA0000E1305DC03DAE7DFEB18FF090E05EA2661
:101CB00002DCCCDAC6F0DFF6FDFAFEDEF704000542
:101CC000FFF601F1EAFBFC22030D0E140810F2F1FD
:101CD000FAF1F0F4FEF9050A05F4FFE3FBFFFFFB60
:101CE000FB1912EAE4DCF3072E1003D5F4EFF8EC4D
:101CF000060406000F0F091D04FEE92418E0F7FE94
:101D000008D0EC0806FFFF1203141CFDE8ECF7D422
:101D10000A2C1E03020C09E4FF0601D600080E057A
:101D200007FFECEE0512F72CFFF90EEEEEFF0B0BA2
:101D3000010820000900FFF2EE1104FAFF23FDFA6A
:101D4000032206F00AFEFB13F10317DDFB3718161A
:101D500012FF0AED08F8F52C08FE19E212FA00FC51
:101D60000B0A25F80209FFFCFC0B0DFA0202FFFA30
:101D7000F000FBFB050400ECF2F4191C00FC0A0760
:101D800016E403E9F4EDF10D03FB0C14F0D70A207F
:101D90000C02E71003FA0C04EAF40806191CF9E532
:101DA000FD1FFCE50528DE113012E22A000BC6EB10
:101DB0002903EAF8F6DEE7FA0CEAEC20250AF80F28
:101DC0000EF107F1FAEB1006F8090900150611CF1C
:101DD000FB1017090C06F10AEF12F305FF07F4FBDD
:101DE000E710F5F6FD2B0715070BEDD9FD0310E9FC
:101DF00016F8E101F505FB00060B15E2030D09FDE0
:101E0000FEFEF30803F5FFFFF900F21AF8EBEEF51A
:101E100001F70412FB05FBDEF1E8F1F8EEEAEBF066
:101E2000F8FA0021F6F7F4ECF8DA011415071908AE
:101E300008CAE9F014180703031C0F100D0806FB6D
:101E40000623FEF60C0D180A08151507160FFA0BD7
:101E50000517FB1C0715241303F419F30E09F239B7
:101E6000041B16110A0E02FA07030FFF0D0D2224A0
:101E7000F303030A1121212DF404EBFC07FCF9F410
:101E800010F536FAFAF6FE051008EEEF03F20BF540
:101E90000B0D0520F7F906111C160BEC0EFB070EB7
:101EA0001B010DFC0FFE12F210F9F20111FBEE15F1
:101EB00007030122F31B171E2209101111FDEF1059
:101EC000F8F2072007F503E4FFFB07F006DFEE1149
:101ED000090CF80F1B0FF3FE00E70D2114F8FFF8B3
:101EE0000B0E040BFC0D040F0613ECEBE2F4F8F4FC
:101EF000FDEBFE07FFEEFAE4E5F8EEF8FF00F6F181
:101F0000FFEC0FE4F805FA0702E00F0100FD111DD8
:101F10001C1612F60908F80B06F61018021309052C
:101F2000FAFAE3DAF700ECFF070A1A2FFCD8DCDC38
:101F3000010312FF03F20D0D09F6FDE4EBE01916A3
:101F40001F0C0D0B0A2818FF0BECEB0F1A1B17FCCC
:101F50000A272D100504E3EC010D01C5002418FF2C
:101F6000FAE0F5101711EBF6F7FDE9E6EC030E10B9
:101F7000FAF6E4CCF6CEEF031101040416191AF6B2
:101F8000F8E9E3F4FE1813F3EDFA17000008EDF595
:101F900006F214F1080602070523140DFF1EFE15B4
:101FA000DC1627F6FD0804FBFDFB150B0C100CFAE4
:101FB00007F1031A100BFA07161D0CF91405071781
:101FC0001908051F1A141013050513090202EFE57D
:101FD00000E9001308D208FDEBE5D5E7E4F4D5CB22
:101FE00008070BF103FC2B1CFBF2CA3001F2F5F7DA
:101FF000FE100F051FECD80109FB0A06FB0303289E
:1020000012DBDFCB0704000302FF2405F8D2EA0D40
:1020100000281E0E120B0AFAF103FCEB00F8FD0E6D
:10202000F405EDD9E4FB0547090DF2EF0501EF04D6
:10203000E70F1906F6F80E0300F8EDF3F504F8F8CB
:10204000F2FCFDF9F0F212F1E0100910FB1CED05B5
:1020500001FCF9E3F81016F2FFF4040CF300EEF3C0
:10206000082723090B1101E2D9F9EF01141D3503EB
:1020700006EBE1EBFB20221B0B02F4F608F7ED0563
:1020800001100A0215EBD6CFF314F20CF71D07115D
:1020900007F3FFE8061A17110104F8E6FD10150C06
:1020A000071F0205F6D7E3F2FBF7180B08FEF2FE56
:1020B0000DFBFF1D1108F5EA0BFCF116F7150CFDE1
:1020C0000DFDEE01FBF8F2FCFE0B11F009F5070A1D
:1020D0000144FFF51D02F607FF11FB120A2315FE4E
:1020E000F8F5FFF8000503100C10050B00FC18FDB7
:1020F000FB08FCD9F60E0DF0E40CEEFDF908FDF33B
:102100000518F7EBE2F30C00F7F3010408B9CCF47F
:102110001D0E09F1FFFDF10DFADDF4292B240A1241
:10212000F4FAE2E9F700012C1FFEEBEBEADAECDB54
:1021300001181C09F7EEEDFCE703F9E20AFA0DF4C9
:102140001A330D01DED6E5E7FDEFF716080815F89E
:1021500018E5F5FAFDFDF1FBFDFF01F1F2F3FB04DB
:10216000010A000D162B1F250EF60922EC2B2A154D
:10217000FD08F405FA0C1813FC0A2609E5FBFA0D14
:102180000E1D0D30FA1A17F6141707130FFEDDDEB9
:10219000F8F2E8F7051F03F7F8EDD5ED00F2E7E1F7
:1021A000FE0907EDEAF3F2F0070DF1FA09EFDBEAB9
:1021B000F6081800FBEF1306EAE2F2F409F9FB0255
:1021C000F60401ECEF09F407EE05F3000AF2FD1046
:1021D000110AF8EEE7F817C20BEEFCE9FEEEF9E3A0
:1021E000FDF5F5FBFC04F4F7FC0D0A0BFDFC06F510
:1021F000F409FEF70D28F40A000BFD27FBEEFDF9AC
:10220000010DF8121507FBF0EFFCF7EAFE22131D93
:1022100030FAF92F05F7DB0CFD13091D080FEA252D
:1022200009F4EFF9E9EC2D1D06FAFBAC03FDF1F31F
:1022300007F70C3503EB06DE0CEEF804E4EC26E1C0
:1022400008F61CF0F7050D02E8DAF300FAFE11FDBE
:10225000FB050103F308F00B0412FAE702EBE82395
:102260000A020DE8F5EFF1F00D0BF7B9FBFAFD1AD4
:10227000F504E407070C04FE0CFDF41A0B0A0B0C22
:10228000F5EF0FFD04040014FE0BDA04FEE507FC75
:10229000FEEDF9090EF1F6F3F2D01421100B220134
:1022A000040DFF30F5070F27FB0CE7F405F70A03D1
:1022B000F5080E09F5FAF3EE01FEFDE90DE5090357
:1022C0000A18F6EAE403EFEA05F2F712FA0DE8D786
:1022D00005070DEB08060007FBFCF6080701FF08E1
:1022E000040A12060AF7FEF7FF071F14051016125C
:1022F000133D2C170108E5DD040AFA08110D21062B
:1023000020F708F9F40A05F6060003DB0AF7080BC4
:1023100007F703111518150CF30F04BDF30AE22299
:10232000161A1504041B1826FA040F100C0B0A17B2
:1023300016F92F090D052C26EDE3F606FB00FE1914
:10234000F529271CF9CFF6E70104F314F913080A5D
:1023500009DEDAF1F9EEEEF6F3040415D9C5EDF86D
:102360000CECEB22F8100CFC04EF0DFAFEE6061A5A
:10237000F80F05110DFF05EEFCFBF406F9F1090954
:102380000BF3E5F5F6E5F7EEF8F1091B1A1F09FA6C
:1023900027033100080DFA0800FFEAED00F505F902
:1023A00007421700DBC0EF0523FAEFFF0A0B1F12ED
:1023B000E7D2F5250B0CF20916132305FAE6030EF6
:1023C000F2ECE51FFDF00C1EECF619130E030903E9
:1023D0000B011E12F1EE0EF7000FFA020D02F0FCD7
:1023E000F5EFF004FCF8F1F30CF412E008E2FAFA6D
:1023F000F40B16FD0C24241111F007000FF926131D
:10240000F91E210BFE040AFB0EF602100DE4D6F4B1
:10241000FF041004060C0F050DF3EADEFAEF03F8D3
:102420001FF51300FFFAFC02EBFEFC0D03FAF604A5
:102430000803151314030801E9D4F11E0318FF0D56
:10244000040AEEEFE3F20C0809EDE6EF071F2F1484
:10245000F7FB152C05F0FF273E2F19EBF1F01DF5CA
:10246000F429312C290F01E5EAEBF7CC040BF2F645
:10247000F807FDFCF8F40020FCE2C7DFE8040701E0
:10248000F807FCFA08F6FC06DCFAFEF10BE00A2C71
:10249000F406FFF702020703F7070030F9FAFE1609
:1024A000F6F9EDECFBFAE9DD090914100414FBF769
:1024B000F4D40AFDF304F9FE1105FCF1FE06F7035E
:1024C000FDEE01F6EEEBEFCCE3F0162C0100190364
:1024D00010FBFBFE0613140DF7F7FC0E19F8FB0AB0
:1024E0001906FF04001AF70806F203191B0711FD6D
:1024F000FF3006EAF7FE0715062913E2F9231BED64
:1025000016FDFC10EA282A1905FF24EB0415040F18
:10251000E0E2FFF9F51E00FFECF304090BEBD7FD39
:10252000FF16F50404FBFC0809F2CD04F900FF00D6
:10253000010303E401F0C40DFC19FAD8211C170EA5
:10254000F9C1A9FE0B050AFDF0F9F2F20BF702F64C
:10255000FD3AF62C1C1B2324212711070BF5091229
:10256000151117FA07F00A1207F519DDE9E6D8C9BF
:10257000E3EDE7DDF4F1F0F1E4ECFBFD0910DDF44F
:102580000BF305041B1B140A15F7FCE4FAE1F91A16
:102590000E1209EBF1F9133600F7FBF6E2F70C0A1D
:1025A0000E12172504FDF6EB01E5F9FE06000B02FD
:1025B000F4170CFA11F616FDFEF30229F9E70D07E0
:1025C00000F8F3FAF9F4020506CBFDF9FAFAFBF884
:1025D000080AD80A0D04080AEEF410E5F7120203FF
:1025E00000EC03030216F20E1C03F71E080B17F192
:1025F000FE17F70D081C0E0707201515000D050323
:10260000F3F8F5F000FF03F60D10F1E9E0F91CEE28
:10261000F7FF09EBF0DDEFFB05170809FEF3C7C173
:10262000CDFC1731FBFF030F0ABFCDFF062E0514AB
:10263000F8FDFF08F4C9E0FB1C1708E8F7F305E311
:10264000FEE811160609F7F4E6F6F9360AFDFC0471
:10265000F005FDED0517074608FAFD00E209010047
:10266000EFFBFD070003FFF9F3041517F405F7FF6F
:10267000F5D8DCF20A0C04F9F7F6E2C900EF2837C6
:10268000FBFBFCDDEBFB06B1F81F12070514132161
:10269000162000EF0C2E0600021B0F0FFE0DF84354
:1026A000FCE3DFF909151DFC120BEBB6F4FAFEEBA7
:1026B000E6EDFA0FF811D4E8FC0D031803E412EC70
:1026C000DDF2F6090D0B0E05EB1C04F6EEFA040321
:1026D000F4F50406150F0DFF070605E904FB0B0EC4
:1026E00003FAE9FC0A03092201F1E7FFE4EAEA063A
:1026F000FA0BCEFBF406F807010D0B26F4F7FBF6F8
:102700000626DBFC1607FE2907FFF91A0418140A2F
:102710000813FB1320030E01FED50A04FF13210D3D
:10272000F3F1FBF2FDF3141402160908EE0810048D
:10273000FFF80B0BFB0A0BD4E4DC0CF7F70ADDF710
:1027400007F70BFADDFC10D80D0BF8F407E8D8F208
:10275000DBE7FCDF06DA0F442EF0B3D0F6EE03031E
:102760000AE0F40CE404E0D9DDE2E60DFE0BF7D854
:1027700006DCF5E4F5EB06F0F7DBE3F2F9FDF0CD6E
:102780002B1EE406FA0BFBF10A0D0F10FFE5FCFE11
:10279000FEFE0C0405190C0FFCCF03030911F30016
:1027A0001927060C0715F60711211402FAFA11333E
:1027B0001B1911EEFFD1EAF3D5EBF2FDFA0F0D383C
:1027C00000C2D5F2EAF0ECE60E111C0600F3F706A3
:1027D000F7FD09FC0C07FFDF0C050DEEFEF5FD17FC
:1027E000FA0DF7F305F7F9F9E0050D17F8F70710FB
:1027F000FEE401F5F0F9F4FA06FEEEFDF50AF8162E
:10280000FEFAF90C122011EF07DFD91E1513F0F9AB
:10281000FD09FB0B0D07020304F60BF1F715F80D8C
:102820000E0718120FF1FB050205030903EE08035A
:10283000FEEA11030A1C06E7FB00120D08FD00F773
:10284000F30415F8FA111414F9F010EFFF16302DF7
:1028500002020F01FF1F26090A181809030F07FAC1
:102860000D141212FA0C0DC6FDF604FE1F28FDE42D
:10287000F907ECDFF3E60C0AF3EDE90906FEF40EC6
:102880000BF709E4F4E2EFF5F9FFF505F801FAF5C5
:1028900000E5F304EAFC19060D0F110FED18E50130
:1028A000D6DFE80404F8FF06FEF7F51904F401FA90
:1028B0000208F1F1FAFAD5DDE20E160BFBF5F20192
:1028C00013C9EBCAF21D0810F7210710FBDFDA0766
:1028D0002914EAE006210ECFD0D2F10C1A1BF99F81
:1028E0000DEFE5C9F80514FFFDFE1BDF0CF6F3E361
:1028F000F919FF04E9F7F6F907FE0C17F20EF809CB
:10290000FB04FDB9F313F6160AE5FBF1EFE714102B
:102910000B3410180BF009F405F50C0BF8FEEE0162
:10292000DAF12505FEF617240AE50FF1FBF9020797
:10293000CA0934F700F30E0B0A0DF91FFF05FF015A
:10294000F4E8DBDFEAEBFD0605FD0E15F3F4DCF73A
:1029500005090C00FEFD0FEA070E03F4F3E8DDECB9
:10296000FB07161002F01E0E09E30CEF040909E73D
:10297000F30E07050005010D080AFEE9F802020A38
:1029800010EC09120EEAFDF0F9DEFE0AFF15030E47
:10299000060306020BEA0C25040B1701060D060AB6
:1029A000FFF408FE1A151FFF1308FA06FFFFEFF9E0
:1029B000F2F90C151D20EA43FB0B17090E05F3096C
:1029C000F3FB0E00E41B000036150000F4F5FFFFDA
:1029D000EFF0FFFF8E1000008D000000CAF2FFFF35
:1029E000C405000051F4FFFF3113000052FBFFFF4C
:1029F000F90C000032070000FBFCFFFF76FFFFFF31
:102A000088160000F6130000D907000041FDFFFF03
:102A1000CA150000C8FBFFFF390000000DF6FFFFDC
:102A2000A109000039FBFFFFB5F8FFFFFA0B00001A
:102A300046FEFFFFDB030000DB070000BE0E0000C8
:102A4000880400009AE8FFFFCCFCFFFF8C0D00001B
:102A5000B3080000ADF0FFFFA716000003FFFFFF63
:102A6000A70000005603000080110000090D0000BF
:102A70007F0000000A06000035F6FFFF09FBFFFF9C
:102A8000C011000043190000B90100006BF8FFFFFE
:102A9000D9F0FFFF87040000800D00003B0B000011
:102AA00072010000CBFEFFFF40FFFFFFAAF9FFFF0E
:102AB000C50A000048EFFFFFC60E0000C313000068
:102AC000F5FEFFFFBA19F5BE332CF7331E1819F7C0
:102AD00013B61D0309B51302FED6F0AEE71218288F
:102AE00016EE222E2929161BFF370426C6F61705D7
:102AF000E00EF1D516E4EE251BBDEBE8F1180FF85A
:102B0000FFEE090912DADF04EA33F4FF0E1CF615B2
:102B1000FDF5D8CAF9CEF9F6D40B34F4E51D0C1541
:102B2000D1211C35F90522282EA608D4C6D7E2DC0F
:102B3000120A0DC7C5F1DB091E01E7F9010FBFD16C
:102B40001E0DF0123006200AEEF0E713EAB4DC2581
:102B50002C2CF30B033B12F30D09E21EF5E9A70A37
:102B6000FDF503FB1AEBFB0A1B13E9E9DEFBFB0E89
:102B700002E9D1311A130E082312F6F0E3EF171011
:102B8000EDF1FB0E1E240AE401E6540005030BF2EE
:102B90000803E8E32ADADB05F3142B03F1DBD3D6D1
:102BA000CBEE0DFC0710E9CF1206FC1C0ED6080C6C
:102BB000FCEE0F22014501E3EEF3B32324F0FF12F4
:102BC000121BC22130FEE31CF4020D0E0715E203B6
:102BD000F9E6463306D6152E0C22D4F6E3232B094C
:102BE000F915FC24ECD52302090BD91A2F02CEE6E5
:102BF000091CF1D709FE17F0F619141B3112130640
:102C000003F5C8F6EE1DEF010316CA1FF124349D2B
:102C1000FDA71DFD06CC1609C7F3213331291B0A78
:102C200000282EFD01552EEC0F29E511B50104E118
:102C3000DF3306E610DC1EF2DCE5EEFCF11A1025AF
:102C400019DC38FD202CE9241916031CFED8E743B3
:102C50000AEBE71BF3001118FE07E013EDF29100F9
:102C6000F01E39ECFCF910321D27ECC4EC0D0922E2
:102C70000DD0E52AEBFDF1EA28F5AE22DDD3E22105
:102C8000F4E74115E8380BF3DBFB0C1DDEFA1B17EC
:102C900017E5FDFFF3F9D5D1FA0227D5DD0828465F
:102CA0002FECEF42D5DBFC092D22F81E040920068B
:102CB000F62B0CE706D7FCF8114021F8F636ECB1FC
:102CC000FF0FB6050D07F512FBEFEE27E4DF0FE768
:102CD000173CD106012401F5070DEF1E0F36C0F099
:102CE000F71D1CD7250BE82810F428EFEC1D27133F
:102CF000F7F6E707170EE3021008CBF1E52AF30811
:102D00000815B91D18D1032B15EEF63312072FAD98
:102D1000E8E3F5F6F6BEF0FDDC1310113369181781
:102D2000F414F3F1E735E03D19F0CD1205DC04FCB5
:102D3000181BFE180F00FDBDEDED1B20F315034021
:102D4000150C4BF8310DF4EAE1313D0E0B28B312AE
:102D500038182D0C0512222609DDE2E4E6BFFBED52
:102D6000E8EE0D25EFCE20E00C262AFBFA0CD9E484
:102D7000050207D8D80CFBFC24192D090BCD35F121
:102D8000E9CACFF6F3F021E9EAF427E50AE9C1EF51
:102D900018DE2500FAFA1715132C0D01CFF214F6E0
:102DA000F128EC0B0DE061FED204136B4518C5EA67
:102DB00005E21512F71C20F4EE051FDC2CEBD6E71C
:102DC000FDE5FCFD180E14E31EF5AD1206EA2CF627
:102DD000183FF4B11702FAF32602142054F7A6F4B0
:102DE000EA1416F3231DC30201F83AD3DF0716FCD9
:102DF000FBE1061F0503D8192A06D123B70EF319E4
:102E0000CFF31F1D07DAD8032828010DFE1418057B
:102E10003714F0F313DDD427D80301FBE133DFFAD5
:102E2000DEEE0BE491CD39FC0FDD36F2F80418111B
:102E300013F051CBDB02A20610E498F40C0DF8C39A
:102E40001C0AD405D9FF3BFD1717EAF630CC071E44
:102E50000C122DB5FE2C1019F6F101FEE6F1E0E999
:102E6000530EDEFD22D92BFBD0140A05C521F81222
:102E7000FFF9E3042420022012BAC70CDE0EE5ACF1
:102E8000100A34F1DCFFFFF3DDFF0C00FE01DCD3A0
:102E9000013210FE0121FB2D310AD502FCD8EBE3F3
:102EA000E50F05C5B9FD0D0003EC40E20F2321013C
:102EB00021231D09F025EE1306DCF3FE192302ED94
:102EC00019F7F81D150D06FEFFF22D0DFCFFF81584
:102ED0000C03EB3C160202D5EA1F121F27FD4A1510
:102EE000E912C5F3F850DB0F382CFADC330A030281
:102EF000EE191E01FF0A2018F12C3BDC19FA2630CE
:102F0000FBFEC60C09111DF3D30F10BA1209F3BA58
:102F1000030325E618DE082F01F23A03F025DEE26E
:102F20000A1D0E2B17E4ECFDF2E631D6E606C814B6
:102F300014FCD3FEAA07E61D0D0AEB45F1DBF613E0
:102F400010F1F81AEAD91719061087DC20C72204F5
:102F5000FC20E4B3F6D810E7100CF4143928B92F8C
:102F60000F311AFF4A10E72929EB00D3D5F12303CB
:102F700023D312F1F2B8FF070B1F06DDD99CD01B3B
:102F8000EBFEFB1311DA170C3118E013231F0C3E74
:102F9000F4FEFEF50EEE2F120CCDD7D0020CD3218D
:102FA00004FD37103DE20C2923EADCFDF1FF2A1471
:102FB00008FE2806F9BDE4F3DE2EE000E4C0DC1EC6
:102FC000FD225D110B02F6E322F7FCE4FF2A18D381
:102FD00016E2200AF3B0FEF310F901CEF123F2233A
:102FE000F00A08162AD5F621FBF1262B2AED361415
:102FF000FADB1FF8E3DEF2F9FF231B1D010DF9E8F0
:103000000AF3070F0EE105F9D10E23D7FD10F2E305
:1030100006332715F601EE402D1718FDEBD9D6EC37
:10302000DA1AFDE105CAF1F60A0722E83712FE1F97
:103030001EFC141FB806051E1EF908F812D5F21C56
:1030400014E9F60717C2F6E7DFD5C5F8EEF8E9B4DC
:10305000F3DCF2F016F3E9D708254424F908AEF3BF
:10306000C8EE13DC1925F604181617E8DD410FF237
:103070002A161E00D2F2160910CFD210BFE70C0F8D
:1030800018F1241BE2E206E632D5B61C3A2B36FDD7
:10309000EAF30E08FFEE0C4FFCEBCF0D0223492B99
:1030A000F909CD06D63BFD1FD2DD340DC5182B1214
:1030B0000601F409F80400FDDEF90DE40D1A18DC30
:1030C0000DDAF3E8ED08FF00ED0A29F6D523E73025
:1030D000ECE2FA58FA00E3E1FF0F000A1E0A193B7E
:1030E0000FE6DEE2E14AFB363C12071523E8001644
:1030F000103117E8260A1A0AF0261ECE090E2F2ACA
:1031000021090314C8DE17DE1ED62031220F1ED47B
:10311000DBE8F1DE0BE0F82BE4E82FDAFD0E220409
:103120000DE1230D0228DD27F000083433D80032EA
:10313000E3153816053ED6E1CBD0DAF33308011794
:1031400026FF1BFF13FA15E52313FCEF440EDCDE0C
:10315000DFF519C50CF8DB0AEB3E08FFC20420FEC0
:10316000040A1B190CE4BFE6D7FC0D3CDAF9FE1685
:10317000F6DE21F0300B24F63AFE05161D0003C7DB
:103180000AF2D1EF00F6172606FEF112F0F5F6EF7F
:10319000091BD4DF012E06E2E80AFC2E1415C5F93E
:1031A000070424B619160B0AF7FBFBEEE21E030D0B
:1031B0000C04DE0E1D1B1100F6E0D106F12005F116
:1031C0001816FA161AEE29F6FA013DE90FDAE50E9D
:1031D0000A0F0E42EA060B30FFBBF0F7ABDCCFE57F
:1031E000FC191B08E3BF02E40B0C1920051BFB3480
:1031F0000FEC05FDFA3215251315FA090B15E5E656
:10320000E4D7E1E4DCEF16D1D6F402EFD7FCCCB87A
:10321000EC02151B03E80301E31E1604EAE7FF01B5
:10322000CF09E3CC0E21BE1616132CD84D0AFD1F74
:10323000FD17221FD309161A22D9E60D05FF2818FB
:1032400021FBCD1B1910234408032506E8E1AF1725
:10325000F414EB1926150EC71FFD021132FC5D0593
:1032600007ECF51DF8F828322B34D5FF31F80011A2
:103270000F19FD1230ED2FFD0D1006FDD3C42C14D7
:103280000CE231FA120510D9C7F318A3011400C3D8
:10329000F7EBF62DF8042117E9DE18121DFE2DF6C6
:1032A000E40C0A1D2C1E0FD523FC0AE4F807F00CD1
:1032B000E8060B020A0919190704040F00DB293A72
:1032C00023EC2CF2D206451A0E0DDB1612F93A1435
:1032D00013F3FABD0A0FE7EFEEDE28142A01EF0C14
:1032E0001EFC0DCA2150C8F0F31809DCBD191509E0
:1032F0000D290DF00A0F181903F5FAE6D40718E3A3
:1033000004FBF91911E0F60FE7E920F701DCBDFE37
:103310000244140F1A1E10272513CE10DCD6F0DC41
:1033200000FA21C8E4E31C0303001FFD3605F6FE86
:10333000FF2A151AF10DF9F720EFE8122910170BE3
:1033400010FDDE173012DF0AD7F50B17E6B612298B
:1033500032EDE906E1241906151F0029B72CE5080E
:103360000227BC200B1CFA0404C00809E507EAEB9D
:10337000FFFCDC07EC302F01E108E82020EDF9E646
:103380001EF2CF2205E60B0EE1FBF3FBF40421D97C
:10339000E9F7E7F5292ADCE9F821340903F6CDF449
:1033A000FA1823FB0741E70C1AF0F0E306FB0819B3
:1033B000F012161A0A37F1E3E7B7BB26182614F401
:1033C0003510DC2221EC2504E2EC29F010E4EA07B8
:1033D000030CF0E205D20D13201B190CE9FEBF0B04
:1033E000F009F3F30107C3D6F8FB17ECFAF2040F68
:1033F00016EE1E31ED2E17011C0C261F2108050AA2
:103400000406B4041C1D0022FCE2EF102A1A18273F
:10341000E801E60500A3FBE51829D703342AF33AAF
:103420000FF4F233EC16CB2B3E05C9EDECBF2B00AD
:103430002C1E1AEF10C50E19012A0E00C8D3042441
:103440000AFC1307F5EC18FFFD020FBB16F815D6A2
:1034500017C51A0FFEE00F0009072A0FF1E8261F13
:10346000F51F911C0FEDD1D30207050B1208EB14C9
:10347000FCFA14DCE0FD0A17D3B72B012B001EB9B0
:1034800020E9DD050D150315251E01E6231A1C0D87
:10349000FB120DA521E9ECF6181FF2FBF60D0E4903
:1034A00014EDF310EE11E9D914EFF32A910006E5BB
:1034B000111B14D93AF0200D06EE14E10412FDCFD1
:1034C00018E2DEF3162A06F816FBF1FA34FDF605CB
:1034D000F11403B3FD1F1CFE2806EF01E3F5DEE245
:1034E0000703142C24E548EFECE2F338D60A20DF7A
:1034F0002103EF0928FF00F1F6F3E8281B1CE0E99F
:103500000D21FD00C035D0D32DE4F801DE1CF704F9
:1035100007C72ACB16C92319F5DD11CEDE16411BCC
:103520000BE7E8F2EB194B3EFA0C1A1837F92B03AC
:10353000E5D8FF2A2BF2E5F419F61ED3290E0CD696
:103540001BD6E80911EFFE2DEA0517F5F0C2EC23B2
:103550001D42DB080145F7D61207C631FAE4EFEA4F
:103560002AF13CDADC03030E1EF505C7030E1C032B
:103570000E0AF8142E25E5031B0800E306F50F1BC1
:10358000DA0EDB1307492DC23A09F625FBFAE0D91A
:10359000F108DAF6FD06F0CEDEFA13130AFBE5EECB
:1035A00020230C9D11F31A381609D8F51D11FB23A1
:1035B0001311F00CF8EDEF040C0CCF0CCBDAC8CFE4
:1035C000D51AF32DD01F17C4EF291EE416561ADAA8
:1035D000FF0B1CDB3607BB082FFE0BE4EE013D0C96
:1035E000EFE11BEB1BEBCAE715CE1E39CEFE1CF537
:1035F000D6D9FDD83A2CD53022F6F1F2E83BE821B5
:103600002AFB02D1DD0B18FCF336FBFE2CFB1E3728
:10361000F0F011ABEF4610FED8FDFAE9EAF928FF09
:103620003109F607EEFD4903ECFF021401FDED0739
:10363000F008FC2024EE1009E5B91305F30FDFC1F3
:10364000001722163A001FE03105C3113612D9D0F7
:10365000FF1CF3CAE91CD7220DF412F90CF6E80896
:10366000101E32401BEDD4DBE4191AEAA91217FE32
:1036700004D3030220DD102C40D7D20EEBD4ECC6CD
:10368000DB19E1D909FB10E0F3A915132C07EEC9EA
:10369000E5E40E3C10151D0A17F110F6FE0B3B0871
:1036A0000BF7D0DC0A09DE01DC0FDE1443F5202124
:1036B0000303F81D11090DEF07191515291A26FA2C
:1036C000E724B5020E10E1F51C16DC321382193521
:1036D000050FE308E6F71AE9DBE212342B240A208F
:1036E000FC11E42DEE3D1B1D181402F9EC0D00F544
:1036F000FBF3D5FA26EE0900FB2F0BECD6D3DEE563
:10370000D32350F637EDFEFC22E408FAE44D11080D
:10371000F0010D3012FAD5E104381EF54112F81F00
:10372000BC0FE06B0206BFE53AEFF00FF0F2130DAD
:1037300009080304E2E337ECE31BE81FE40AF20D97
:103740001A0C40F1D3E11617FC2CF4F521EC09EC2E
:1037500011F01106062CFA2228080105DFFB1BE2F6
:103760002EEB1EBFF31508FDDAED2AFEF928F41240
:10377000EF151AED0535F4130EB4E8D9150B17CF74
:103780002219C2092201F305D00E14D12027F124F9
:1037900001060D1306FEF2F2261DFE0F0003E0F9EE
:1037A00012E0FBF8D41D23F518E2062B140DEA04F1
:1037B000F51F1AEF102B19FFFAFA181839051933EB
:1037C0003EF1E2EF0CD80619D12AF4FA32EBE73ACF
:1037D0001212F1430E2435E21CE09706F8F21BF7B3
:1037E0000DFC3F3EFDF37F08C000C23F381FEEF9DD
:1037F0002AC3F4EA1213E3170314F30912D9EF3DB5
:10380000F4F82BF2E3093705150400CC35EE1DF969
:1038100005021DA61221241EF71F08FE03E5281F1E
:10382000310CC819EE0708D7D2FAE330F410F313BD
:10383000FA35FB1821041B0FF4C83EDD0E1B05C929
:1038400017E5F90630EC17FA20FBFEBD05F716EF79
:10385000DE0FEEF0F8012C0A05DC1B062DB704275D
:10386000E0EC2F572D042A1532FFD626D2F71E1E64
:10387000D00BD71C0CDA21E1C0092F0CEDEB16346C
:1038800028B76E0C0DCDC505EB3D27E0D510D00E49
:103890001FE9F111E33C1624DEFFC9E30B0024A26B
:1038A000202939D5E5DB28F7D504EDE53336F60DCB
:1038B000F5EF4ACBF805D1F2EC219DF1361DDE2261
:1038C000D70DCB0E2CBDF0F0D1C11418D33500F4B8
:1038D0000A0DF13AF7E6D5F1C925061D2025EBFDC5
:1038E000E1F132162B3ED2DA172A04E013EDE2EBB7
:1038F00011043CECE80BEBBF14CBE805F31E30558C
:1039000026280AF0D9F0FEFE13351019FBAD1DFC78
:10391000FFEC01D2FD23F3D7CBE825FCE321CFD583
:103920003B06322E02110B04B2FE2D20E5FFEC24E3
:103930000307EEEE2807F61DD7BFD2EAF526F0DC26
:103940001F2FE411D917FDE04A09F740F7DD3AEEE1
:1039500014FFF7E61DCE0C0EFFDCD4D9001DF927AD
:1039600010EE2E12FFFFF41D040C0208F81F3CF1AC
:10397000FBFDE901F9D8FE0032F6D91CF91BFF9FC7
:103980000D0BF21159CEF90F19FCFB2201290D1D67
:10399000E3291C4F1DDE1AF604210EFC200FD5F67C
:1039A000BB100A3F014AB1D31EF015FE46F8C3DA38
:1039B00024F1DF1207FD0ECADD2F4015132AF55042
:1039C000080CFDFD25090AFBDFD025C1201D05BB24
:1039D0000E12E837BE14190D0C06142025FBEF104B
:1039E00024DAC4513ED408DDE8DEDE3A2C0F1A207A
:1039F000E9D7F72EE5E8F8D79FFD1C381AE832DA48
:103A000028EE6BFC241509E508FB0CF41F1EDBFEF9
:103A1000F3202A9B24EDE5311E26EDFED3DF0F08AF
:103A200018F71620FEDA2C040C112011D31A1CE111
:103A3000F00D21DEF801F7092D050925D31BE4D48B
:103A40001AF31E141102E41ED211A825BBFAEED9F6
:103A5000FD042727191CD2D5AC1DF113F6EED7FAB9
:103A6000FDE5C3FD130D01BEF5E431014BCD0BFCAB
:103A70000E011B270E0605180DA0E7D4E71C2AFD32
:103A80002E07B5FCF20014EDF6BDFF26FB25F5E38D
:103A9000DDF1FF45300CEEFE04090704E90C1D20A2
:103AA000F3E7E9E2EA09D01F0A2706FE50053008CD
:103AB000F71E2125072FFCF31BFEF20F132F151005
:103AC000192CA02C7000000081FEFFFF9E04000056
:103AD000B0FFFFFFB1010000EFFFFFFFC2010000D8
:103AE000690000000A0500007FFDFFFFF5FFFFFFF2
:103AF0004201000040010000F3FFFFFFED01000064
:103B00003C0100003B010000C8FFFFFFE6FCFFFF97
:103B1000F5FCFFFF76FEFFFFB6FFFFFF97FEFFFFFE
:103B20009F0100005001000049FFFFFF0BFFFFFF56
:103B3000E70200000E03000049FEFFFF190200002B
:103B40001DFEFFFF11FEFFFFBB0300008901000007
:103B5000ACFFFFFFC3FFFFFF37FDFFFF2CFEFFFFA2
:103B60000FFEFFFF7E01000082020000F003000054
:103B7000BD0100002DFFFFFF2004000082000000B7
:103B8000D8020000A2020000ACFCFFFFA1FFFFFF73
:103B900073FFFFFF38040000C5FFFFFF8FFEFFFF2C
:103BA000390100002C0200005FFEFFFFF70100005A
:103BB0002B020000F5FBFFFF28FFFFFF5202000071
:103BC000450200000703F3F6CA16F5F104DB1EAE4A
:103BD00037200CFEED192C17111023FDCA1F17ED0D
:103BE00000ECD8E321EBCCF30903E917ECC3C50BD8
:103BF00064F443F7D6FF02E3AD07130608F51DCEC4
:103C00000315C5FB0520F3F7D830E902E41EFFFADF
:103C100018CF07C601013015EEE221CA0619DDFCF6
:103C2000EBFB062519CF180AEF2A3116EBAAF4EDA3
:103C30002E19DEC7283E1808281D30F5AD24C4FD16
:103C400011C1AECB2BD7D1EDFE26E02BF223E7FC42
:103C5000A8020AFF05E1B50307ED074A1A3E17F669
:103C60000522FDDF1EF8BE07E8FC0425E829E11067
:103C7000440FF3262AC817FEBB17C58AB92020AB0C
:103C8000D5F5C61FF900EC191191E205F5B811320E
:103C9000D0A9F7F60E1C08C30A13181DEFF405E2AD
:103CA0000E1BD41BE9FE18FA16B925DCF500BB0A79
:103CB000D009DC28E925FB00011AEDB0020AF12841
:103CC00032EA340A23F11EE1F8CA29221C10D1DBA2
:103CD00008D4E7D22AB91D0C02D7BDAC16D9CCFB4B
:103CE000F1EB1DF206E910EDF728F1E0E040151CBC
:103CF000DFF3BA16310CC1E207EEDDE007B61B2C8C
:103D0000DDC6DA0FC49D11972DFC0EA8F2102C17FA
:103D1000D4FBFF0CF1ECBF30E61AC1B0F8DCFEEDCD
:103D20001AF931F7C52AFCB1FA27EF0507E8290887
:103D3000F400EFEDC4D1011126005A6728CFDAED67
:103D40003B123EEA1F2AF8F1F1F81BE91901E11ACA
:103D5000174521ECB212162519E106F8B5ADE40FAE
:103D60000F83D3F1E6E80ADCD5D2C6B01D20EA19EC
:103D7000C20C27D820F805C22DEB2027102D26C70E
:103D80002D0BFFC31138D017171DAD25041FFE20C2
:103D9000E531B4F306F10A2729E6CFF5122207E54B
:103DA00081EAF0F7E5FB0FFE061AEA151235F08FEF
:103DB0000BC21C18EC1CDD1803F0E0B819F00D2143
:103DC0004B1CCB17C0F80F1FF3F8EFE91CBFC10560
:103DD00015C7120DFFE5BACAC0F9E117E7FE3B2689
:103DE0000BF8F6C8130C191C1AC1E8181CC21E0DDA
:103DF000CB092009F0C51403F420DDECBA14080C3B
:103E0000B90AED10D4E90317E51025E41F0BF2BB46
:103E10001B0ECE130B1907DE0F0E5BF111B4B80C9D
:103E20001A26F931FE08061807DFE3DBC105210E6B
:103E3000EEDBBDE0DD060F0CD2C0CB113306E5137F
:103E4000A1EA4E0D73FEFFFFAAFEFFFF590000001E
:103E5000A5FFFFFFF7000000B100000066000000B2
:103E6000ABFFFFFFC40000009EFFFFFF808080804B
:103E70008080808080808080807F7F7F7F80808046
:103E800080808080808080807F7F7F7F7F7F7F8039
:103E90008080808080808080807F7F808080808024
:103EA000808080807F7F8080808080808080808014
:103EB0007F808080808080808080807F7F80808005
:103EC0008080808080807F7F8080808080808080F4
:103ED00080807F808080808080808080807F7F80E5
:103EE00080808080808080807F7F808080808080D4
:103EF00080808080808080808080808080808080C2
:103F000080808080808080808080807F7F7F8080B4
:103F10008080808080807F7F7F7F7F8080808080A6
:103F2000807F7F80807F8080808080808080808094
:103F30007F7F808080808080808080807F7F808085
:103F4000808080808080807F7F8080808080808073
:103F500080807F7F808080808080808080807F7F65
:103F6000808080808080808080807F808080808052
:103F7000807F7F8080807F7F7F7F7F7F7F7F7F804C
:103F800080808080807F8080808080808080808032
:103F90008080808080808080808080808080808021
:103FA0007F7F808080808080808080807F7F808015
:103FB000808080808080807F7F8080808080808003
:103FC00080807F7F7F8080808080808080807F7FF6
:103FD0008080808080808080807F7F7F80808080E4
:103FE000808080807F7F7F80808080808080807FD5
:103FF0007F7F8080808080808080807F7F7F8080C6
:104000008080808080807F7F7F80808080808080B3
:1040100080808080808080808080808080808080A0
:10402000808080808080808080808080807F7F8092
:1040300080808080808080807F7F7F808080808083
:104040008080807F7F7F7F7F7F80808080807F7F78
:104050007F7F80807F7F808080807F7F8080808066
:10406000807F7F8080807F8080808080807F7F8055
:10407000807F7F80808080807F7F7F80807F7F8047
:1040800080807F7F7F7F8080807F7F7F7F7F7F7F3B
:104090007F80808080807F7F7F7F7F7F8080808027
:1040A0008080808080808080808080808080808010
:1040B0008080808080808080808080807F80808001
:1040C000808080808080807F7F80808080807F80F3
:1040D0008080807F8080808080807F8080807F7FE4
:1040E00080808080807F7F80807F7F8080808080D4
:1040F000807F7F80807F7F80808080807F7F8080C6
:1041000080807F7F7F7F7F7F7F7F808080808080B7
:10411000808080807F7F80808080808080808080A1
:104120007F7F808080808080808080807F7F808093
:10413000808080808080808080808080808080807F
:10414000808080808080808080808080808080806F
:104150007F7F7F80808080808080807F7F7F7F8066
:104160008080808080807F7F7F7F80808080808053
:10417000807F7F7F7F80808080808080807F7F7F46
:1041800080808080808080807F7F7F7F8080808033
:104190008080807F7F7F7F80808080808080807F24
:1041A0007F7F80808080808080807F7F7F7F808015
:1041B0008080808080807F7F7F8080808080808002
:1041C00080808080808080808080808080808080EF
:1041D00080808080808080808080807F80808080E0
:1041E00080807F8080807F7F80808080807F8080D3
:1041F00080807F80808080807F7F8080807F7F80C4
:104200008080807F7F80808080807F7F7F7F7F7FB6
:104210007F808080808080808080807F80808080A0
:104220008080808080807F7F808080808080808090
:1042300080807F808080808080808080807F7F8081
:104240008080808080808080807F7F7F8080808071
:10425000808080808080808080808080808080805E
:104260008080808080808080808080807F8080804F
:104270008080808080807F7F7F7F80808080808042
:1042800080807F7F7F7F7F808080808080807F8034
:10429000807F7F7F8080808080807F807F7F7F7F26
:1042A0008080808080807F7F7F807F7F8080808013
:1042B000808080808080807F7F8080808080808000
:1042C000808080807F7F80808080808080808080F0
:1042D000807F80808080808080808080807F7F80E1
:1042E00080808080808080808080808080808080CE
:1042F00080808080808080808080808080808080BE
:104300007F807F8080808080807F7F7F7F7F7F7FB6
:104310008080807F807F7F7F8080808080807F80A2
:104320008080808080808080807F7F80808080808F
:1043300080808080807F7F8080808080808080807F
:10434000807F7F7F7F7F7F7F808080808080807F75
:104350007F7F7F7F7F80808080808080807F7F7F65
:104360007F80808080808080807F7F7F8080808051
:10437000808080808080808080808080808080803D
:1043800080808080808080808080808080807F7F2F
:104390007F7F80808080807F7F7F7F807F7F7F8026
:1043A00080807F7F808080807F7F7F8080807F7F14
:1043B0007F7F7F7F7F7F7F808080807F7F7F7F7F09
:1043C0007F8080808080808080807F7F80808080F0
:1043D00080808080807F7F808080808080808080DF
:1043E0007F7F7F80808080808080807F7F7F8080D3
:1043F000808080808080807F7F80808080808080BF
:10440000808080808080808080808080232D302B01
:1044100020000000686C4C00656667454647000058
:1044200030313233343536373839414243444546EA
:1044300000000000303132333435363738396162AC
:104440006364656600000000E81E0000FE1E0000B8
:10445000BE1E0000BE1E0000BE1E0000BE1E0000EC
:10446000FE1E0000BE1E0000BE1E0000BE1E00009C
:10447000BE1E00003E2000003C1F0000E81F0000A0
:10448000BE1E0000BE1E00006E200000BE1E00000A
:104490003C1F0000BE1E0000BE1E0000F01F0000FA
:1044A00034290000942900003C29000094290000D0
:1044B00040290000942900003C2900003429000014
:1044C00034290000402900003C2900001C2900007C
:1044D0001C2900001C2900004029000000010202E4
:1044E000030303030404040404040404050505058C
:1044F0000505050505050505050505050606060668
:10450000060606060606060606060606060606064B
:104510000606060606060606060606060707070737
:10452000070707070707070707070707070707071B
:10453000070707070707070707070707070707070B
:1045400007070707070707070707070707070707FB
:1045500007070707070707070707070708080808E7
:1045600008080808080808080808080808080808CB
:1045700008080808080808080808080808080808BB
:1045800008080808080808080808080808080808AB
:10459000080808080808080808080808080808089B
:1045A000080808080808080808080808080808088B
:1045B000080808080808080808080808080808087B
:1045C000080808080808080808080808080808086B
:1045D000080808080808080808080808000000007B
:1045E000E8451020000000006C6962676C6F73730F
:1045F0000000000048801020EE811020D2811020A1
:104600000000000000000000F28410202685102029
:10461000D0801020AA81102042821020FA8210201F
:10462000000000000000000000000000000000008A
:10463000000000000000000000000000000000007A
:10464000B28310207C7F10200000000000000000DA
:104650000000000000000000FC961020629710206F
:10466000629710200E9710206297102062971020FA
:1046700062971020209710206297102062971020D8
:1046800062971020329710206297102062971020B6
:1046900062971020629710204497102044971020B2
:1046A00044971020449710204497102044971020DE
:1046B00044971020449710204497102044971020CE
:1046C00044971020449710204497102044971020BE
:1046D0004497102044971020C4971020009B10206E
:1046E000E49A10200000000000000000000000001C
:1046F00000000000A8981020000000008C9A1020F4
:10470000B89A102000000000000000000000000027
:104710000000000000000000000000000000000099
:1047200000000000549B102000000000000000006A
:10473000000000000000000000000000709B10203E
:10474000E09B1020269C10208C9C1020029D1020A5
:104750001C9D1020309D10204A9D10205E9D102031
:10476000C09D1020229E1020829E1020A29E10200C
:10477000E89E1020169F1020349F1020549F102078
:1047800058A31020000000000000000000000000FE
:10479000000000000000000000000000B4A4102091
:1047A0000000000076A51020C6A510200000000023
:1047B0000000000046A6102016A61020BEA1102062
:1047C0005AA11020000000000000000000000000BE
:1047D000000000006EA610200AA71020A6A7102037
:1047E0001AA810200100000020000000001BB700E4
:1047F00000366E01010000001F00000003000000F1
:104800003F000000010000002000000000366E01A3
:10481000006CDC02030000001F000000020000002A
:104820003F0000000100000010000000808D5B00D0
:10483000001BB700000000001F0000000300000084
:104840003F0000000100000010000000001BB70046
:1048500000366E01010000001F0000000200000091
:104860003F000000010000001000000000366E0153
:10487000006CDC02030000001F00000002000000CA
:104880001F0000000100000008000000808D5B0098
:10489000001BB700000000001F0000000300000024
:1048A0001F0000000100000008000000001BB7000E
:1048B00000366E01010000001F0000000200000031
:1048C0001F000000010000000800000000366E011B
:1048D000006CDC02030000001F000000020000006A
:1048E0000F0000000100000004000000808D5B004C
:1048F000001BB700000000001F00000003000000C4
:104900000F0000000100000004000000001BB700C1
:1049100000366E01010000001F00000002000000D0
:104920000F000000010000000400000000366E01CE
:10493000006CDC02030000001F0000000200000009
:10494000070000000100000002000000808D5B00F5
:10495000001BB700000000001F0000000200000064
:104960000F0000000100000002000000001BB70063
:1049700000366E01010000001F0000000100000071
:104980000F000000010000000200000000366E0170
:10499000006CDC02030000001F00000001000000AA
:1049A000070000000200000001000000808D5B0095
:1049B000001BB700000000001F0000000100000005
:1049C000070000000200000001000000001BB7000B
:1049D00000366E01010000001F0000000100000011
:1049E00003000000020000000100000000366E011C
:1049F000006CDC02030000001F0000000300000048
:104A0000FFFFFFFF0400000001000000808D5B003D
:104A1000001BB700000000001F00000003000000A2
:104A2000000000000400000001000000001BB700AF
:104A300000366E01010000001F00000003000000AE
:104A4000FFFFFFFF040000000100000000366E01C0
:104A5000006CDC02030000001F00000002000000E8
:104A6000FFFFFFFF0600000001000000808D5B00DB
:104A7000AAC2A20000000000230000000100000004
:104A8000020000000600000001000000AAC2A2000F
:104A9000001BB7000000000017000000030000002A
:104AA000FFFFFFFF0600000001000000001BB70031
:104AB0000024F400010000002F00000003000000AB
:104AC000FFFFFFFF06000000010000000024F400CB
:104AD00080A8120101000000170000000200000081
:104AE000FFFFFFFF060000000100000080A8120188
:104AF000558545010200000023000000020000006F
:104B0000FFFFFFFF0800000001000000808D5B0038
:104B1000001BB700000000001F00000003000000A1
:104B2000FFFFFFFF0800000001000000001BB700AE
:104B300000366E01010000001F00000002000000AE
:104B4000FFFFFFFF080000000100000000366E01BB
:104B5000006CDC02030000001F00000001000000E8
:104B6000FFFFFFFF0A00000001000000808D5B00D6
:104B7000007C9200000000002700000003000000FD
:104B8000FFFFFFFF0A00000001000000007C920010
:104B9000001BB7000000000013000000020000002E
:104BA000FFFFFFFF0A00000001000000001BB7002C
:104BB00000F82401010000002700000002000000AE
:104BC000FFFFFFFF0A0000000100000000F82401C1
:104BD00000366E010100000013000000010000001B
:104BE000FFFFFFFF0A0000000100000000366E0119
:104BF00000F049020300000027000000010000004F
:104C0000FFFFFFFF0C00000001000000808D5B0033
:104C100000127A00000000002F00000003000000D6
:104C2000FFFFFFFF0C0000000100000000127A00EF
:104C3000001BB70000000000170000000200000089
:104C4000FFFFFFFF0C00000001000000001BB70089
:104C50000024F400010000002F000000020000000A
:104C6000FFFFFFFF0C000000010000000024F40023
:104C700000366E0101000000170000000100000076
:104C8000FFFFFFFF0C0000000100000000366E0176
:104C900080C3C901030000002F00000001000000D4
:104CA000FFFFFFFF0C0000000100000080C3C901EE
:104CB0000048E801030000002F0000000100000090
:104CC000FFFFFFFF0E00000001000000808D5B0071
:104CD000B6A16800000000003700000003000000DB
:104CE000FFFFFFFF0E00000001000000B7A16800F9
:104CF000001BB700000000001B00000002000000C5
:104D0000FFFFFFFF0E00000001000000001BB700C6
:104D10006D43D100010000003700000002000000D8
:104D2000FFFFFFFF0E000000010000006E43D100F6
:104D300000366E01010000001B00000001000000B1
:104D4000FFFFFFFF0E0000000100000000366E01B3
:104D5000DB86A20103000000370000000100000014
:104D6000FFFFFFFF1000000001000000808D5B00CE
:104D7000001BB700000000001F0000000200000040
:104D8000FFFFFFFF1000000001000000001BB70044
:104D900000366E01010000001F000000010000004D
:104DA000FFFFFFFF1200000001000000808D5B008C
:104DB000AAC2A200000000002300000002000000C0
:104DC000FFFFFFFF1200000001000000ABC2A200C5
:104DD000001BB700000000001100000001000000EF
:104DE000FFFFFFFF1200000001000000001BB700E2
:104DF000558545010100000023000000010000006E
:104E0000FFFFFFFF1400000001000000808D5B0029
:104E1000007C92000000000027000000020000005B
:104E2000FFFFFFFF1400000001000000007C920063
:104E3000001BB7000000000013000000010000008C
:104E4000FFFFFFFF1400000001000000001BB7007F
:104E500000F824010100000027000000010000000C
:104E6000FFFFFFFF1600000001000000808D5B00C7
:104E7000E82A8500000000002B000000020000006E
:104E8000FFFFFFFF1600000001000000E92A850077
:104E9000001BB7000000000015000000010000002A
:104EA000FFFFFFFF1600000001000000001BB7001D
:104EB000D1550A01010000002B0000000100000094
:104EC000FFFFFFFF1800000001000000808D5B0065
:104ED00000127A00000000002F0000000200000015
:104EE000FFFFFFFF180000000100000000127A0021
:104EF000001BB700000000001700000001000000C8
:104F0000FFFFFFFF1800000001000000001BB700BA
:104F10000024F400010000002F0000000100000048
:104F2000FFFFFFFF1A00000001000000808D5B0002
:104F300027AE7000000000003300000002000000F7
:104F4000FFFFFFFF1A0000000100000028AE700004
:104F5000001BB70000000000190000000100000065
:104F6000FFFFFFFF1A00000001000000001BB70058
:104F70006658E1000100000033000000010000005D
:104F8000FFFFFFFF1C00000001000000808D5B00A0
:104F9000B6A1680000000000370000000200000019
:104FA000FFFFFFFF1C00000001000000B7A1680028
:104FB000001BB700000000001B0000000100000003
:104FC000FFFFFFFF1C00000001000000001BB700F6
:104FD0006D43D10001000000370000000100000017
:104FE000FFFFFFFF1E00000001000000808D5B003E
:104FF00000A86100000000003B000000020000006B
:10500000FFFFFFFF1E0000000100000000A861007C
:10501000001BB700000000001D00000001000000A0
:10502000FFFFFFFF1E00000001000000001BB70093
:105030000050C300010000003B0000000100000020
:10504000FFFFFFFF2000000001000000808D5B00DB
:10505000001BB700000000001F000000010000005E
:10506000FFFFFFFF3EAB1020E2AB1020BAAF1020D5
:10507000B2B6102030B7102048B7102064B7102007
:10508000B2B7102096B71020CEB7102004B8102069
:10509000F2B91020B8B81020D0B81020ECB8102009
:1050A0003AB910201EB9102056B910208CB9102022
:1050B000DCB310209CB3102022B410204CB410207C
:1050C00078B41020BEB41020FEB410203EB51020DD
:1050D00084B51020C4B5102026B6102070B610205C
:1050E00076B81020FEB910201EBA102020C0102063
:1050F000BEBD10209ABC102000BE102056BE10204D
:1051000076BE102076BB102096BB1020B6BB1020B8
:10511000F0BB102028BC102062BC1020CABC10209C
:1051200014BD102044BD10208EBD102000000000D2
:1051300080FFFFFFC725633D00000000AE26D53C81
:10514000A0FFFFFFCB5DEE3D00000000F71C7E3DA1
:1051500099FFFFFF0000000007020100040104099D
:10516000050900009CA8102020A910209CA910204F
:1051700010AA102032B1102060B11020E2C310201C
:0451800002C4102035
:105200005D7186C6A2C480082326A4FC2324B4FCB6
:105210002322C4FC2320D4FC232EE4FA232CF4FA0A
:105220008325C4FB032504FCEF10901CAA872324CC
:10523000F4FE232604FEC1A08327C4FE8A070327A9
:10524000C4FCBA979C4363D3070081472322F4FE32
:10525000032544FEEF10D061AA87BE85032584FE96
:10526000EF10B03DAA872320F4FE032504FEEF10C3
:10527000906B2A87AE873A85BE85EF10F0772A8734
:10528000AE873A85BE85EF1070102A87832784FB8E
:10529000BA97232EF4FC0327C4FD9307F00763DCC1
:1052A000E700032784FC8327C4FEBA971307F0079F
:1052B0002380E70025A80327C4FD930700F8635C5B
:1052C000F700032784FC8327C4FEBA97130700F86E
:1052D0002380E70021A8032784FC8327C4FEBA9714
:1052E0000327C4FD620761872380E7008327C4FE8C
:1052F00085072326F4FE0327C4FE832744FCE36DC1
:10530000F7F201000100B6402644616182805D71C0
:1053100086C6A2C480082326A4FC2324B4FC23222E
:10532000C4FC2320D4FC232EE4FA232CF4FA232AF1
:1053300004FB232814FB0326C4FB832504FCB707C6
:10534000102013850735EF006067232604FE65A053
:105350008327C4FE8A07032744FCBA979C4323246F
:10536000F4FE232204FEA5A00327C4FC832744FEE9
:10537000BA97838707003E87832744FBB307F7402C
:105380002320F4FE0327C4FE832704FC3307F7021F
:10539000832744FEBA97032784FCBA9783870700C4
:1053A0003E87832704FBB307F740232EF4FC032733
:1053B00004FE8327C4FDB307F702032784FEBA97D0
:1053C0002324F4FE832744FE85072322F4FE0327CB
:1053D00044FE832704FCE369F7F88327C4FE8A07A9
:1053E000032784FBBA97032784FE98C38327C4FE50
:1053F00085072326F4FE0327C4FE8327C4FBE36945
:10540000F7F401000100B6402644616182807971A1
:1054100022D60018232EA4FC232604FE39A0010066
:105420008327C4FE85072326F4FE0327C4FD9307C4
:1054300040063307F7028327C4FEE3C2E7FE0100FC
:105440000100325445618280411106C622C4000821
:105450002945592B2945492BB70710201385473774
:10546000EF00C063294549232945BD2B2945AD2BB4
:10547000B70710201385473AEF0040620100B240A1
:105480002244410182805D7186C6A2C48008232E19
:10549000A4FAAE873287A30DF4FABA87230DF4FA83
:1054A000B70710201385873BEF00405F13060010FD
:1054B0008145B7170080138547ABEF006075130671
:1054C0000004814513854194EF0080741306001099
:1054D000814513854198EF00A073130600048145B0
:1054E000138541A8EF00C072130680028145138521
:1054F00041ACEF00E0718347A4FBBE85B7071020E5
:105500001385C73C65291305803E1137B707102066
:105510001385C73E6123B757102003A70713B7575A
:10552000102083A78713BE883A88B7170080938717
:1055300047AB130700049306000937361020130603
:10554000469CB70510209385455C0325C4FBC133F9
:105550001305803E6D3DB7071020138547403D2B56
:10556000B757102083A64713B757102003A7C713B8
:10557000B757102083A7071413060004938541949E
:1055800037150080130545ABA5391305803E41351D
:10559000232404FE232204FE232004FE85A0138777
:1055A0004194832704FEBA97838707003E878327A9
:1055B00084FE635BF70013874194832704FEBA9748
:1055C000838707002324F4FE13874194832704FE76
:1055D000BA97838707003E87832744FE63DBE70093
:1055E00013874194832704FEBA97838707002322F9
:1055F000F4FE832704FE85072320F4FE032704FE20
:105600009307F003E3DDE7F8032644FE832584FED9
:10561000B707102013854743552693874194838706
:105620000700BE8593874194838717003E86938742
:10563000419483872700BE869387419483873700F0
:105640003E87B7071020138547458D2EB7071020DA
:105650001385C747A121B757102003A70714B757D1
:10566000102083A78714BE883A8893874198130730
:1056700000049306000437461020130646ACB735E5
:105680001020938545AC1385419451311305803E1C
:10569000BD3BB7071020138587490921B757102054
:1056A00083A64714B757102003A7C714B757102075
:1056B00083A7071513060004938541A81385419815
:1056C00081361305803EA133232E04FC232C04FCD9
:1056D000232A04FC85A0138741A8832744FDBA9799
:1056E000838707003E878327C4FD635BF70013872A
:1056F00041A8832744FDBA9783870700232EF4FC33
:10570000138741A8832744FDBA97838707003E8704
:10571000832784FD63DBE700138741A8832744FDCB
:10572000BA9783870700232CF4FC832744FD850761
:10573000232AF4FC032744FD9307F003E3DDE7F895
:10574000032684FD8325C4FDB70710201385874CED
:10575000B524938741A883870700BE85938741A816
:10576000838717003E86938741A883872700BE86DC
:10577000938741A8838737003E87B707102013859A
:10578000874E2D2CB707102013850751012EB757D0
:10579000102003A70715B757102083A74715BE8809
:1057A0003A88938741AC2947930600043746102076
:1057B000130646E4B7451020938545BC138541A8E0
:1057C000B9361305803EA131B707102013858752E3
:1057D000F522232804FC1DA0138741AC832704FD78
:1057E0008A07BA979C43BE85B707102013850754D4
:1057F000F122832704FD85072328F4FC032704FDF9
:10580000A547E3DBE7FC2945C522B7071020138530
:1058100087546924938741AC9C432326F4FC2326B8
:1058200004FE85472324F4FC89A0138741AC832719
:1058300084FC8A07BA979C430327C4FC635FF70084
:10584000138741AC832784FC8A07BA979C4323269D
:10585000F4FC832784FC2326F4FE13054006453E12
:10586000832784FC85072324F4FC032784FCA547B5
:10587000E3DDE7FA0346B4FB8347B4FB0327C4FE2A
:105880006317F700B70710209387075629A0B707BB
:10589000102093878756BE868325C4FEB707102045
:1058A00013850757212A1305803E9536B707102028
:1058B0001385475AE5220100B64026446161828083
:1058C000411106C622C400084136B70710201385CF
:1058D000875AE922B757102083C787150546BE852A
:1058E000B74710201385C7E6793EB757102083C706
:1058F00097150946BE85B74710201385C7EF613657
:10590000B757102083C7A7150D46BE85B74710208F
:105910001385C7F88D3EB757102083C7B7151146BA
:10592000BE85B74710201385C701B13EB757102079
:1059300083C7C7151546BE85B74710201385C70A0C
:105940009936B757102083C7D7151946BE85B74774
:1059500010201385C713053EB757102083C7E715DE
:105960001D46BE85B74710201385C71C293EB75773
:10597000102083C7F7152146BE85B7471020138531
:10598000C7251136B757102083C707162546BE8591
:10599000B74710201385C72EFD34B757102083C793
:1059A00017162946BE85B74710201385C737E13C37
:1059B00081473E85B240224441018280397132D410
:1059C00036D63EDA2ED23AD842DC46DE97B7EF5FC3
:1059D00083A7470A8C4754102A863E8506CE36C6D2
:1059E000AD23F24021618280AA8517B5EF5F0325C0
:1059F000650810456F0010711C51011122CC26CA98
:105A00004AC806CE4EC652C40045AA842E8999E3E0
:105A1000EF00D0578357C400A18B99C31C48A5E75A
:105A2000A2852685052225C17D55F2406244D244D7
:105A30004249B249224A056182801CC4050963D7E4
:105A40000700184C63CBE702638945031C401387AA
:105A5000170018C02380B7001C4483450900FD17B8
:105A6000E9FD1CC463D407022286A94526852D289A
:105A7000FD57E30BF5FA29454DBF228626852D20DB
:105A8000E31C35FD55B7FD59294AF9B71C4013876A
:105A9000170018C029472380E700F1BFAA8517B572
:105AA000EF5F032525FD89BF011122CC26CA4AC814
:105AB00006CE4EC62A89AE84328409C51C5199E3AC
:105AC000EF00D04C1C4C1CC48357C400A18B99C35D
:105AD0001C4891EFA2854A85B52011C9FD54F240BA
:105AE00062444249B2492685D244056182801C4005
:105AF000184893F9F40F93F4F40F3385E7405C48AA
:105B00006347F500A2854A85EF00703561F91C44B2
:105B1000FD171CC41C401387170018C023803701D1
:105B20005848930715006309F7008357C400858B15
:105B3000DDD7A947E395F4FAA2854A85EF00303214
:105B400059DD69BF411122C426C206C6AA8417B511
