:020000042010CA
:100000009711F05F9381812797020000938282010C
:100010007390523093021000638402007350107C7E
:100020009702000093824211739052301301000036
:1000300063140100138181E2732540F181421303AF
:100040000040137101FF6385A2001A918502D5BF9C
:10005000970000009380C00763830000829073259F
:1000600040F181450146ED209300000063830000CC
:100070008290970200009382C20073905230032353
:100080000000F5BF000000008280A14673B3063077
:10009000914263C555001376350011CA230005004F
:1000A0000505FD15E347B0FE731003308280232061
:1000B00005001105F115E34EB0FC7310033082808A
:1000C000232003001103E34D73FE82800684970210
:1000D000F0DF938222F3638C02049702F0DF9382B5
:1000E00062F2F32740F1A14673B006300A8397030A
:1000F000F0DF938323318A9363037300D1376398CE
:1001000057021703F05F1303E3EF9713F05F938336
:10011000E399630373006D371703F05F130383EEF6
:100120009703F05F938303EE63037300513FA28054
:1001300082800000F322203473231034F323303400
:10014000D5BF411122C6000801003244410182801E
:1001500006849711F05F938161129302000063118E
:10016000550E97A200009382E2301703F05F13034D
:1001700063E99713F05F93836393638C6200635A20
:10018000730003A5020091022320A3001103E34A98
:1001900073FE973200009382E24A1703F05F130365
:1001A00063E69703F05F9383E3E5638C6200635A31
:1001B000730003A5020091022320A3001103E34A68
:1001C00073FE0F100000973200009382A2471703BE
:1001D000F05F130323E39703F05F9383A3E2638C41
:1001E0006200635A730003A5020091022320A3005A
:1001F0001103E34A73FE0F1000001713F05F13039F
:10020000E38A938341A26357730023200300110301
:10021000E34D73FE1712F05F1302428911C202967A
:1002200017A500001305E5E4EF903059EF90505EFC
:1002300017A500001305A51EEF903058EFA0801CF5
:100240000937FD5673B0463073B04634F32710308B
:10025000372704007D8F09C773B0363073B026305E
:10026000370704007D8F19C373B006184167130761
:100270008702F98F89CBF32700300967D98F7390F4
:1002800007307350300005459735000093850536DB
:10029000173600001306C6353120EF90B052A28009
:1002A00082808280411106C2F32240F113030000D4
:1002B0006385620073005010F5BFEF3070339240D9
:0402C00041018280F6
:0C02C800D4021020000310202A03102094
:1002D400011106CE22CC0010EF70F0642326A4FE98
:1002E4008327C4FE99C7B7170080138587A6EF70CC
:1002F400506C0100F240624405618280011106CE17
:1003040022CC0010EF7030622326A4FE8325C4FEA5
:10031400B7170080138587A6EF9060730100F24041
:10032400624405618280411106C622C40008F16757
:1003340093850720B7170080138507A3EF90900FCC
:0A0344000100B24022444101828012
:10035000496E666572656E6365206F662053616DD8
:10036000706C652025640950726564696374696FF7
:100370006E3A20256C64094C6162656C3A202564F4
:10038000090A00004269744E6574204D4E49535469
:1003900020446174617365742048616E647772698A
:1003A0007474656E20446967697420436C6173736B
:1003B000696669636174696F6E206F6E2073696628
:1003C0006976652D686966697665312E00000000E2
:1003D0004279205368776574616E6B205368656B52
:1003E00068617200726564004C4430006772656534
:1003F0006E000000626C7565000000004174206CA6
:1004000065617374206F6E65206F66204C45447380
:10041000206973206E756C6C2E00000043505520CF
:100420006E756C6C2E00000043505520696E74652B
:10043000727275707420636F6E74726F6C6C65721B
:10044000206973206E756C6C2E000000537461720D
:1004500074696E67204D4E49535420696E6665720B
:10046000656E63652E2E2E0054494D455220696EEF
:100470007465727275707420636F6E74726F6C6CD9
:10048000657220697320206E756C6C2E0000000070
:1004900054494D455220696E7465727275707420AE
:1004A00068616E646C6572207265676973747261ED
:1004B00074696F6E206661696C65640043505520F5
:1004C000696E7465727275707420656E61626C65B8
:1004D000206661696C656400F50505F50EFDF70A97
:1004E0000EFEFB0DFB181001FF0E0FFFFB050506AE
:1004F0000E0F0AF60AFE09FB0D1213F70F07060589
:10050000FCF2F8000E0C14242122E10F0E0EF8F775
:10051000F8F807F905FE02F4340F1E05FB0D031B66
:100520000A1A301BEFDCE5FBFB0A1B0607F904FC8B
:1005300028251E074F4F43482C314957292D2E2976
:10054000E7E80E2FF41A1D1013060F083E392D0B85
:10055000273A38270A0A1B210C10180C00F7F5FF60
:100560000A1F1A0E1BFA08FD171F282B111D131F37
:100570000B020B1407090F0AF709FEFE1B01291DC8
:100580002F1108061218182415251C0E191B1C18EB
:10059000080B070DF7F905FF24261E1A0F0A1DF098
:1005A000070324271F0C0E1411261E1F16061717EB
:1005B000DEFDFF081D0C2EFB111125F20205FC11BA
:1005C0001B151205193114100E041A0AF906111020
:1005D000282320FA19171F060D0B022002F4FEFC37
:1005E0002F25FFFE0403000BF010070211FE2D0F54
:1005F000412D1311EFF80006D0D9E0F10704F3D92B
:10060000D5F1F713C1E2D5F10A0B08D42D180A076A
:10061000D3E5FD0FDFD2CAC7E9E0DFD6EFFF05E97A
:10062000A5ACBDD7F516EBA30C2311F5CFBEE2E9BF
:10063000E6F7D1E3F0E7E4E3FB12FCF98DB3D2F87F
:10064000F0FBDFA50F0308EAD6CBCEE3EEF1FBE922
:10065000EBFE02F4050D05FAC1CDECFB03FD07B975
:100660001012041DFDE4C7F3EB0C0809E9FF09EFC4
:10067000FF0FFCF5FCFD0509FB390E071E151124C3
:10068000E8F5EEF9FEFCFD02F3FB01FB0A0DFEFDB1
:100690000B0D0F1B2025322847202019D1FB1317E3
:1006A000FDFAF0D2F1F2F9101E1E12EA20331A13ED
:1006B000304A403862131D04E1FC1B3BE5E4C7CB24
:1006C000F6E2E6E31F1217F8152B200B202C4A192F
:1006D00058040C1E0015243DCCCED9EB11F8F5D3EF
:1006E000241B28241D28241F14213D2B48051CF001
:1006F0001324253BF9F6FD0319130BF70F231E13E3
:100700000D10151111254B2F4DFC0EFC1A1D293112
:100710001219241F081A080E0F140E1C08080A1AB2
:100720001C2127283C3411FF10051230100D0B0D31
:100730001604020F1D0F140D1401FD0606221F16CC
:10074000262BF8FC030DFD1B0706110E02FAFE0313
:100750001A0C060E2216FB0AF20318164B21F40798
:10076000161F344703170403F2F9F2F808FDF6ECFC
:10077000200E0CF8F3312A344A02FB00323F4C5071
:100780001318152600081B07EAE60E06052410E5D7
:10079000FB1D1231120C02F5504B3D2F3C42514CC7
:1007A0001D1B374119111A131119FCFCF200FB270C
:1007B000E1FFFD0C2807EFFE2528242B4B2E4028B7
:1007C00030193D38F30205160C050911060201091E
:1007D0001F0C18023A3925271F193B2910131C2812
:1007E000F9EAE6E9F50000FCF4FD0C0B070AFCF958
:1007F00001FE0AF5F400F0FC05F4F9F3F5080C0627
:1008000008F90C07FD01070CF8E8FD031D0D0F0AA0
:10081000DDF5FA0CFA18FEDBD4EEF5FA040C0EF94D
:1008200008F6F9F10EFC0FFD0B09F913EF00F4F9CE
:1008300027100DDAF60E0F28F2FDF3DFFBE0F3F3DD
:10084000072013260CF9EC03F90DF6F8392611FFF1
:100850003F3B322B0B270F1902E3FF061FFD0C2E27
:10086000040207FEFDF9F4041B17160544251C209D
:1008700000E81B46FBEC0EF51B030D0601192017C3
:10088000FDFCF10701FCFEF20EF9FCFD23211F1A0D
:10089000F40EFEFB212113151A0D2612FB100B0B73
:1008A00008000C0A0602F4001915242C05E9040BB3
:1008B00020050EED08191E171A030104EFFE13158B
:1008C00019F2F7F30516322CF2E4E8E70B0B0EF9F8
:1008D000FCF90C07EFFFEDEEFEF9EAF7FEF80AF877
:1008E000EEF82637ECFFF5E50300EEE1EDE1F0036D
:1008F000D7DCE7EEF5FDEBD80DFF111D12093D3DEC
:10090000E3D9E6E4F4F6D7E804FE0EF4DFE5F9F502
:10091000FFFDF4EEF5F7160DF5063F36E4C5D3EC12
:100920001704F4E82323222AFCEC0822151A271ABC
:10093000E9F2030D05FB0D0ADCDADE04462A16F7A0
:10094000432C303317FD1A3409232A30F2FEF714F2
:10095000F1DCD7D1E8D0F6F8373A3D2D2B3F1D28F2
:10096000180210232A263A31030E161DD9CBC8DFF0
:100970000BE700FD24242F2E352D2F3115EFFC2001
:100980001A312B27191D2731D4BCD2E7F8161B15B5
:1009900015FF110C30371C24FDF0FD1B292A2E2CCD
:1009A0001537302DD8BCCDEECDEE0FF607FAE9ECB9
:1009B000130C1A26FBF3F8082B21300D011B092715
:1009C000D0AEB0EADDFC100502E0EBE1120201124C
:1009D000F3EAECF31F1E211B16061C1FDBCFC3D846
:1009E000E7F807EAF0EFDFEC05F8F7FC0BEDE3EED4
:1009F0001B121418E3F11612EAD9C0C9250FFCF82E
:100A0000EAFDFDF6F5EBEBF0FB01E6ED091E170F35
:100A1000E9E00007F3DBBEE1040A0EF7D4DEF8FBE1
:100A2000F1E8F0EA1719FB06F9FF0F10DAE0EDF82C
:100A3000FDE0DAC8F40008EAEAD5DD0205F6EEEDDD
:100A4000121A1A04F3080721CFE4FCF010F8D7D9E2
:100A5000EEFF0CF1E6D1D6E903F6EBF120112C16EE
:100A6000EFFAF90DECE2D9E70619E5EA40FE0A02D1
:100A700006FAF0FA1610010504120E09D5E5F8027F
:100A8000DDDCE1EAFD03FEDE440C08013726283DEB
:100A900024231E270605210EF3FB010A0CFCEB0A9A
:100AA0000BDACDD02A0A09073A334B413543413E90
:100AB00013172B262F21181C403A403C0BF4EF0053
:100AC0000C0EF3F5081E1F210100FCF10926111878
:100AD00001F802FF1F061A2DFE03F4EA07050804B9
:100AE000F4FDFFF2EFDED8D4D5CCC4F8E6E5B8C407
:100AF000DFE3F207F4FF0C060C02F3F403F9000243
:100B0000F907F7F8F50E170EF3F60BF40CFBF2FCF1
:100B100001050FF2F80AFE071E2C140E442C231CAC
:100B2000450830511930372716321628FFFE0709BD
:100B30000A0209F433271F0D4B622F2F4B494661E0
:100B4000212A1A482F302A230DFB01012B03F4F729
:100B50002F4A1D1D4A5844455548575C1B20262FD7
:100B60001500FF0708EBED1B1A240308263933157F
:100B70002A4E3A552F4A40350F221D2EDEE0FA103C
:100B8000191801B91B0804F623261C290A1B132572
:100B9000271A100B12080A14D8F90500FB1801E8EF
:100BA00006E907030611F9161A0E0F060E060613BC
:100BB000080A0D18E6ECFA04F7FF13F2FA012C0804
:100BC0000DFDFB19F0F8FF0113030908FCF1FD0608
:100BD000ED08F305000202EF1AEA16EE000EFF34EC
:100BE000E500F8F3050A0304FAF7FEF9E4F9EAED83
:100BF0001B1BF2E922FDEFF911060E3BE0EAE7F6D6
:100C00000907ECDDEEE0F3E1E8F90504EE21F0CCB4
:100C100010FAFB090108FF23D8DBE8EBFE0DF4DE38
:100C2000F907E7E8080BF9F704F9D1DA1E061DF415
:100C3000F7F6F702DFE2E8E1062116F012FEF4F221
:100C4000302512250909052C0ADFED05E5DEEE0148
:100C5000DFD7F8E5153926E7FC130A043D1117160E
:100C60000E181A3D02DFF60EDCE2CBD8E9E7EDE71D
:100C70001F3536070600FC222302EDFE2A1E223B0A
:100C8000ECE1F9F9D7D9D1B5FBF4EBF6272C361105
:100C9000F7FDEE050FF70BF11A3E272514E7FFEAE3
:100CA000F404E2EA19F6EEFE2441272107F1F6F3F7
:100CB0000611090D17FA2C0F38291200F1FA0F1737
:100CC000172205FAF524361BF8FBECE216FEFFEAC4
:100CD0001A0E202B2BFE190107EDE81F28291110F1
:100CE000D7FC202417F8F5E5120D0C040C050707B6
:100CF000300418F1F4EA0003161E130CDFECFF0AAF
:100D000013160D01221109070AFF2F0B15EAECF942
:100D100000E5F4FA1612150E050DFE0F152C24270A
:100D2000251F101922141A0E14E9030524150504B1
:100D300014102218201B0F0D2A2817210B141B2911
:100D4000FC0EFFF5271F0A17291D0B100F150A0FA0
:100D50001A332E16111A1A25F3F0EE0707DD07E2F3
:100D60001627FE1A2631251C141103080F1C14081F
:100D7000000E0D0AD4EDF3FEEFFBEED8112D0C0E94
:100D80001014080DFD001C09180E0F18000C05FDAD
:100D9000F5DDEEF5010CF3E5110B03FBF4F8EFF4D0
:100DA00011FE150A0B0B111403FC0812E3EBEEFF06
:100DB000F3101303DC0005FBEDFBCED10CFCF70AAE
:100DC000ED000103090A06FED3DACAFEF60EF5EEBF
:100DD000EEFBFD0EF8D4D7EED9D9E5DFCFBFC9B60B
:100DE000FFFFECDF01E9C5E5F9F1FA0A00F9F3FDCF
:100DF000050910F503EB07041A04F3E204DE050805
:100E000003E6EEF90E0C0C02F2FEFEF3FC0DF90106
:100E1000F4090302FB1302F006F5F8F1F7FD0102F5
:100E20000EFBFE0CF80201FBE1D8F7FAC9D9E3D6B4
:100E3000F80CB9BDCFC9C9F1E0EAE1E00303FBFD5D
:100E4000E4090EFAC6D9D6E8A8B6C5B0F0D0D4BD2C
:100E5000BFC4BCDED6D4B7BBF3F3F4F3E11302FB9B
:100E6000BED4FFCEABABAFAACCC8D2CCCFC4E4EDDE
:100E7000E3DCBFD407E0FAE01A1DFDF8EEFE1A1716
:100E80000AF1FBF6F0F31204F5F2E7E9D7F0F4FA11
:100E9000F500E9E4281E05FC1A1B292905090905A6
:100EA0000C0C1009F2E3E1F2EADFE7D904F5F4EC07
:100EB0004007FD0D192C342C1F240F1E221715245A
:100EC000FF0E162BDADDF4FEF600F2D95D2C010AD6
:100ED0002522333D221B2C1F1E0E24170D19171916
:100EE000DAFCF814EF19D8C9332113E11C2D1F497E
:100EF000051D201C1A181A19181A2516C8040A0CE0
:100F0000F3FEE6B53621361026203D42FF0C0A0CD2
:100F10003228091326232E28D102081506F5C09F72
:100F2000402D1A1C06131528FFF40CF9250D09DFB6
:100F300034302E30C11D292B13D49891363E261AF9
:100F40000AF8202DF5FFFEFE360EE0DA343E472C7F
:100F5000CA3F34470CE3B08E3543261200EBFF2B1B
:100F6000F9FB0A05271BC1E12C2E2F36F2333B3447
:100F70002606FFC220451410F0030413E1ED05041A
:100F80003C17EAC720233A3DCFEF17241A3120D06F
:100F9000192F1CF6FAFDFB20F1E5ECF82B27FFDA00
:100FA0002F41462AD4E9FE13313D2CCA080EF9E13F
:100FB000F5F4F81CE7DFE4F02E2001EE212B402BA6
:100FC000F41512172927F4E10710F8090FF4F212AB
:100FD000F605F10D291921FF0C232E2BF5FE030137
:100FE0002621DADA060118F7FBE3ED080008040809
:100FF00012233710FE02111EFBF8F7F5FE3712F42C
:1010000006231028EDCFEC09F8EFF3EF071108F3F2
:101010000300F8F9DFF904010115FECA10FC0E0CFB
:10102000E8EDDEEECFE6F0DAEFEAF6E7FAF5EEE924
:10103000DCD1FCF2161903E605F2F3FBF4E5DFFC64
:10104000E7E0DDF4E9FBF6DEEFEBF3F6E0E1F2F5E5
:10105000F21604EBE4FF11FCEFE7E9FCEDF6F5F620
:10106000EFF7E8E6F7E8EAF7D3D1EAE80BE5FCF5B5
:10107000F4050A0D0B0A0DDEF803F5F70207F1E996
:10108000F5F7FDFBE5EFDEEAFAE002FEE8E502FD3A
:101090000A16F8FFFE09FA00FD000300F20008F945
:1010A000EBFEEDDE05F60503DFF603F92824271B2A
:1010B000100F0B101503030BF1F4FA0DFAF70B03E5
:1010C0000815EAFCF1ED030F32262E0F3632353CBF
:1010D00019291A23050A110FF7E706110401FCE587
:1010E0000AF30400513808011D393F5031382626D3
:1010F00022412E32F90F1008F4FF061507F303F80A
:1011000020120A0F10221B2E29394522343C3A3F67
:101110002725221CFDFE0EF3090DF209F70909F837
:1011200004F40904040504F8F80604060802F1F8BA
:101130000EF3F60CF8F704F21C26030A12210A1328
:101140000F1319092428EFEF1F281C1EFEFA09FEB1
:10115000F1FBF7032520050732292E272E323237DF
:101160003B202A1B14343328F7F2E2F607140A0452
:101170003227FB000C1B28180D1D010E192F060E1F
:101180002823271EF40DE71FEB0F08F3121303FFAC
:10119000F60D0E0FF809F7F8160C0B0A392C1E2560
:1011A0002317F216D5150FF802E102F8070B03FE1C
:1011B000FEF30C15F8E7E4DB4319120C1621223379
:1011C000C9DDE9F9F2DCCAE21E0CFBEE241C191D94
:1011D000030815140CE6E9041D31293DBDD8D2FDE4
:1011E000DFD2BAB31408F7F5294026280805142FD2
:1011F000F3FB03051D221720CBDBE2D8F9E6D3BBB6
:101200000C0209FC0E13130AF6F9FDFFDEE5F9EFF7
:101210001B2014FAD0D2EFFB0BFCEBC20F140A0F09
:10122000E906F511DDE1DECADFF8F8E8E40822029C
:10123000B3BFE0F20B0DF9D110190612D0F9FE027E
:10124000ECE9D4BF00EFE0E8E20B0F00C2ABD8F44A
:10125000111821E6060C1109F50CFB00F0F4E6D399
:1012600011F503F806E3F70CD4AAD8FB001A19020B
:10127000F70401061F3416FA1711060215081305A4
:10128000F2BBF5FEF4BDD117040D0DFFF0F1080B14
:1012900033453F012625221409041616F5B2D0E87D
:1012A00001DBE2E4EF08FF0DFC0910FE2C4E3A10C2
:1012B000FEFF191AE2EAF7F9F5B9F2DEFECE06F5FD
:1012C000FCFBFBFB14FFF20415384322F004141E50
:1012D000E9ECEAE0DED2F8E00DEBF4E7F2F9F6F142
:1012E000170C00F30C2D2318F3F20200F1DCECEEE6
:1012F000DECEF4F9FCFA0CFD0405F0D5190F060357
:1013000002171922F9F7FD0EFEF6F301CFD3E2EE34
:10131000EBF8F309F501E5E0141D00FC0F151712B9
:101320000618150B05FAFC03D8E6EBEDFB00D80117
:10133000F7E5DFD7120A01ED200F071C1B0A090889
:101340001906071A08DEE8FBFEECE9F301F0CED33C
:1013500005140AF9110708011A0E1E1D12061017AE
:1013600017FB090C03F00114FAF30000000C081C31
:101370000E111C051E1E121A0B091E23F3CEFB179D
:101380000B071801E3F10531E9F803FA0100EBEC72
:10139000061916F81C0B1611F812072412F208058C
:1013A000F40A3113E9F0ECFDEAF4EFF211FEFF0864
:1013B00025372B2E081DEE12D004F8FC13FF0ADA95
:1013C000FB071015F3EFF2022D2D0FF554304838BE
:1013D0000CE10610E418070E100614F51F21110B7E
:1013E0000E0B13232D272B123D2B43490CDFF91C29
:1013F0001B03FD04272A2E2B12281D2021372A2803
:10140000031808212200233FF206F112FF0CFEF818
:10141000FDEEEB04FCE8EFECE902C7F8EFDBC4D823
:10142000FF060B0805070C0E07080609F502F7FA78
:101430000BF7FB0FFB05F2F70AF7F3F9F503F70DCE
:10144000FFF7F6F507F70A0DF705FAF60DEFFA00C4
:10145000030B0411E1C90C14F4F503F5F205FF03C5
:1014600007F309F9F6ED0012BFBCCDE2C0CDD1C043
:10147000EBE9D9DFE4E1D9F6F603DDDCEBED00FAC8
:10148000DBEB08F4E1D3DFE4F9FEF3EFFEF0EEEB83
:10149000EBFEF3010DF20BED1704FBF9EDE4D8EBD5
:1014A00014F5F5F31B080F0AF2050E02E8F2FFE44B
:1014B000FD141F1410F80307EFF6DED30B0102F042
:1014C000130D0C18FC030919F9F6F40CEB14320295
:1014D000FA0F0E04EFF908DE250C03F824251E2070
:1014E0001B17242A1D0319120E27321EFFFF1EF69A
:1014F000061405FB1E26232425121C2B201E1C1758
:10150000260A0C18080F404607F305141E24FFF6A0
:1015100024271F2C110E27291E261A233F2B242E89
:10152000212A605F110E1F09152A130C331F312E5B
:10153000F115212529121C00393D1D20224E736909
:10154000331D0A05240F1C2224242F28F91F2A19D1
:101550001215F8023F1E1620105B7B753127130A07
:1015600028321D241323201FFF313B1607120EEDD6
:101570000EFA00F70A617F492E20140B1E1C252944
:1015800003080703F7082300100AFDF1DECDF20B74
:101590000A4731E733161605FAF90E1FF2F0F1F497
:1015A000F40007F50909FAFBC8E8F008E21EFDE5BA
:1015B000F70FFF22DEE9E9F8F9EFF3EB030009F991
:1015C000FC0A0900EFD8EAF6E4DAE1ECEF07131AB7
:1015D000CDCDCEF4F1F0F2E9F2F606FEF508F2F622
:1015E000F9E1F4E4E3CDCFF916FD0EF6D6E2DDFF26
:1015F000EEF0F0DBEDE4F217EAFBF0F60BF6E8F0C4
:10160000E9B8A20227EA16F3EAEF0110ECE9EDF0DF
:10161000F6D8E9FCFAFAFF001203F6FC0CEBAC1565
:1016200013030F1B06230617F80A00F5EAEBF3E293
:1016300001F0F604160602FDEAE2B3F31D0734F6E4
:1016400008192314ED121320F6F3EC09040F03F02C
:10165000190E0008E2CFDD0B0CFB19011D1615FA5F
:1016600004F91E15F9E9FEF907F8FBEB12250C0643
:10167000FCE1F6EE0909F8FD221E08110801051229
:10168000F9FD06FBF4FAFEF1FD150F0A0BECFFE97C
:1016900011F0F5020B14030D0608070309122316B7
:1016A0000C02060B0D010909F40906FF321BF909AA
:1016B000F7FFF317220E11081E23221AFAF6140F51
:1016C000F9F9FDF40BFEF50A4204F5010C02F52BC5
:1016D0002624141336372736140D1B23F9E7EEF5AD
:1016E00009CEBBF82109F4062A170602473B352527
:1016F00045303E3E362B3C3F21180003FCF1DD1CFB
:10170000EC0E04F3F8DBE5DE1D14FC0B1F181D20A6
:10171000181A201DF51E0B080A08041FFDFFFA0603
:10172000060F12FB1635231A1416330A0B2429123E
:1017300009F60AF0FA0EF3F3F3F4000EF6FAF3F6F4
:10174000FCF4F7F4FE020B1004010BF3040E0B057E
:1017500004030F0501FB03F81C21FE013D2C1F278C
:1017600011EF414824242941102C2C3408F606FF9F
:101770001BFC09F13A0B08094D5E494D0A1A134941
:10178000201222102535372BFBFA0F141AE9F1F23B
:10179000100CFFF0462D38281D263D311413160974
:1017A000180EFD0909F7F41C05F0010C01F7E9D248
:1017B0000B0F1210E9F9060BF8F50AFDFDFFF3F720
:1017C000080BF9E9ED050405FDF4D7D40E0A041160
:1017D00008120D0202010D03EEECECEE04EADAE170
:1017E0000125F5FA10F4E6F126100C21213016251A
:1017F0000B172334D3F011F5E3ACB5B50E27EF1179
:101800000D1DF8E62827241A41272E2E0A21203004
:10181000E509FF16D8ACBCD101281F1D180CF8EC47
:10182000302B211F262D293000FD1120FCF9F8FB5B
:10183000E5AD99CE0F1A29FE07021502121D220BE3
:10184000142A1D0F07010602FFFFF60A13B1AADAD8
:10185000FF1A0D0411190505160B0615E814150AD3
:101860000608F4E40E140511F9B39FE5FD1E1810E7
:101870000C0C04EEE9020908BECBF9F01D0C01E7DF
:101880001F31311BE3A2A4F5001B2811FD13F0EF5B
:10189000E1E8F5F7C1C1CCD60816F9E82D27211AE1
:1018A000EEC1D6210316FFF50107FAE5E9F5FDF2D1
:1018B000E0D6C9C80CF605EF371F13F80AF3133941
:1018C000EC0FF6EF1203FEE50B1B020BE6DFDDE685
:1018D0001516F9F9351D1A10191B1D4AE7F2F4ED1A
:1018E00016050FF608180D18D9E0D8F60E1101F2FA
:1018F0001E0E261713F42D2AE4ECF80928080CF024
:101900001E36221BECD7D1F61A1309F609130B0960
:10191000FB163215DDE7F0F2100B11FB343A2B16F3
:10192000E1DAE712150D11F4FD190C0E272D6420D4
:10193000C0F2011812F70DF42F502811FFF1EE0933
:101940000B16180D1215040AE7173E22BD0424E6F3
:101950000F07F5F632312114FE10063C050D140E6A
:1019600007140B05EC012808D5FA0F0C12F717F62F
:101970002D2618110D202A330EFE080802FC0D0D2D
:10198000F40D0102D5EFF5F409F70EEF202309FF5E
:101990001329233D04FEF90D14FFE9ECFD35151064
:1019A000D1E700FD0B0401DD140E1A171B12212FC5
:1019B000F2EDFD0204FAF5F7FFE00AFCC3E408F4D7
:1019C000111104CC06FA08FC0C070F0FF2E8F5F32E
:1019D000FE11F7E6FBC9F305E6FBF2F9FBFDF9F6AC
:1019E000F702F9080D100514F5F10FF9F9F30309E1
:1019F000FE050A231CE6020FF0EE1311FCEEEFFDCC
:101A0000110B08FA13060F1BECEB02EFF718080B8B
:101A10001808F8F11F15F705152215212230222488
:101A200028201F1CF305F3FCF8F50C220BFCF60133
:101A3000070E0513161D2125162C2A081C263617FD
:101A400019080E01050E0EF4FC03040CFB0CF70E36
:101A5000FEF7FBF9FA0AF6FBF5F5FD06F1FD0A04BF
:101A6000F8060A06F9F1080EE2DBFDF9FCECF0FCE1
:101A7000061E0EDEEEE51537EEE6D6D500F2060CB4
:101A8000FEF1F50CDCEB07F60BF509FE071402146A
:101A900003032012E2F0F5FCF6FA0C06E4EC050D67
:101AA000F0E5F6E0120C140FF90E190706F3020325
:101AB000E3FF0AFB0DE610E6D0F3ECF70D03FCE6BE
:101AC00024191B1A0A20171EFBF41B12C2DED7EFC3
:101AD000DDF4EBDCE4F8F5FC201EFB052D303A21AB
:101AE0003A2D1D1D0E2626390406121AECE301E6D6
:101AF000DCDF160C1912060323111417010A061D48
:101B000002F60C102626FC03E30C1E19EAF4FAF187
:101B1000301D1F26131F2721E7E2F804F6EFD8E94E
:101B2000291405FBFF30060B04F1F42518241117C6
:101B300012113112DBE3F5FC0E07F7E40A0E020284
:101B4000FD1F0B02EAE1D2F91302160C05211B0856
:101B5000D3C6EA000DFBF9D5000B0B14E0E7D9DB87
:101B6000F8E4CDF310F70EFE0207200AAAA6D4016E
:101B70001B06F4CEE7FF04FB09D9BCD4E6C3C5DFDE
:101B8000FDECFBF5FCFF08FCB78EACE00FF6EBDEDE
:101B9000F5F7FDF7F1140AFCDFCAE0E9E2E5DECC77
:101BA0001204FDFED9BBE5122C0EF0FDE4F5191E62
:101BB000F32D4D42E1D90400E3EFCFD33C321203C1
:101BC0000F000A47181B24111E0F0A2A2D596433CF
:101BD000E7F6EF2412F3EAF14835201C0F15394DD2
:101BE0002A2A2D1FFAFC031C1C542F1A120CFA0669
:101BF0001E0300FA3531323436393B4417192D3E75
:101C000000F703EE1C4B3D191C08EBF127170EF4EF
:101C10003A38362D30304C540C211D341E0D180C22
:101C20002960581B1E0FEBFF201DFA084336342A8B
:101C3000242F4450170E2E271C0B10050D2D3D2769
:101C4000FF02FBD72E1B2311443834191E2C3239C6
:101C50001D161C29350E1F1A1A083439F90DEEF11C
:101C6000130C1613182321231F221E25112434219F
:101C70002E1F1D171235432106230BF81E12082AAA
:101C8000220113142814FD20222331252434252772
:101C9000EA280B36281B07FE0F0D0C240E0E160229
:101CA00022181A0B3E2C261142373B28FB3A190A00
:101CB000221301E61700011826221E141C2D3319C9
:101CC0004C3B2F111A3C483EF6F00DFB0026F9F86C
:101CD00001F0D7EC33231A14292E282E3B25282D6A
:101CE0000420323006E708EEE815010ED0B8B7BF81
:101CF000180D1AEF1B230B12F70FF705F3F9EBE79B
:101D000001132C0AF109FCFCC2CAB0D1C7D3B5B586
:101D1000DED1C7B7D1DED7E2E8EAC1DF080B16DAB9
:101D2000F30907F6B7C1F401AD9B9D9C9C87919C7C
:101D3000AD94998CEFD4B7C0F808FFF5040B0F09E8
:101D4000E8DBECEAD3B7BACAB0A4A5D1C8C897B744
:101D5000DFE3D0D6F30604F6D9F512D32858188954
:101D60003C6393C3119EDC4E17199A315B0EC8EE8B
:101D7000143B176A14BA29DF1499558851B1A90484
:101D80008EDB313B21CF6316AE1F22B02531884256
:101D90007FED0AEEE323F7D2FB32FB8932DB4813F7
:101DA00041BC37BDF507DA55808080808080808017
:101DB0008080808080808080808080808080808023
:101DC0008080808080808080808080808080808013
:101DD0008080808080808080808080808080808003
:101DE00080808080808080808080808080808080F3
:101DF00080808080808080808080808080808080E3
:101E000080808080808080808080808080808080D2
:101E100080808080808080808080808080808080C2
:101E200080808080808080808080808080808080B2
:101E300080808080808080808080808080808080A2
:101E40008080808080808080808080808080808092
:101E50008080808080808080808080808080808082
:101E60008080808080808080808080808080808072
:101E70008080D4391F17BCA48080808080808080BF
:101E800080808080808080808080808080805E7E76
:101E90007E7E7E7146464646464646462AB4808049
:101EA00080808080808080808080C3F2C8F223633D
:101EB0007E617E7E7E7A657E7E0C808080808080E2
:101EC000808080808080808080808091C28EC3C32B
:101ED000C3BB956C7EEA808080808080808080801B
:101EE0008080808080808080808080808080D37DA2
:101EF00051928080808080808080808080808080FF
:101F000080808080808080808096697FD380808080
:101F100080808080808080808080808080808080C1
:101F20008080808080017E6EAC8080808080808018
:101F300080808080808080808080808080808080A1
:101F4000BB797EBE80808080808080808080808021
:101F5000808080808080808080808080057E3B853E
:101F60008080808080808080808080808080808071
:101F700080808080808080894D78BA808080808059
:101F80008080808080808080808080808080808051
:101F9000808080FE7E36808080808080808080800F
:101FA0008080808080808080808080808080CB7BEB
:101FB00070B98080808080808080808080808080F8
:101FC000808080808080808080935D7E268080807D
:101FD0008080808080808080808080808080808001
:101FE00080808080834B7E5BA38080808080808027
:101FF00080808080808080808080808080808080E1
:10200000A67E7ECD80808080808080808080808061
:1020100080808080808080808080809F607EF3814F
:1020200080808080808080808080808080808080B0
:1020300080808080808080057E7EB48080808080EB
:102040008080808080808080808080808080808090
:102050008080BD727E7EB480808080808080808021
:102060008080808080808080808080808080F97EF9
:102070007E5BA8808080808080808080808080805F
:1020800080808080808080808080F97E4F928080F8
:102090008080808080808080808080808080808040
:1020A0008080808080808080808080808080808030
:1020B0008080808080808080808080808080808020
:1020C0008080808080808080808080808080808010
:1020D0008080808080808080808080808080808000
:1020E00080808080808080808080808080808080F0
:1020F00080808080808080808080808080808080E0
:1021000080808080808080808080808080808080CF
:10211000808080808080F4FD2B7F7F16DD80808032
:1021200080808080808080808080808080808080AF
:1021300080297D7D7D7D7D7D5A9E80808080808010
:10214000808080808080808080808080297D7D7DEF
:10215000550E307D7DFA80808080808080808080F8
:1021600080808080808080B47A7D52A08C80864E72
:102170007D0C8080808080808080808080808080D6
:10218000808080CD7B5299808080FA787DC180806C
:10219000808080808080808080808080808080803F
:1021A0009F9280808080517D7DC1808080808080F2
:1021B000808080808080808080808080808080801F
:1021C00080F5777D468A80808080808080808080D6
:1021D000808080808080808080808080CC777D67D8
:1021E000BF808080808080808080808080808080B0
:1021F0008080808080808080007D7D1080808080D5
:1022000080808080808080808080808080808080CE
:1022100080808030767D1F8C808080808080808070
:102220008080808080808080808080808080996AAB
:102230007D69A38080808080808080808080808095
:1022400080808080808080808080467D7D0D808041
:10225000808080808080808080808080808080807E
:102260008080808080CE787D3D8C80808080808062
:10227000808080808080808080808080808080805E
:1022800093487D7D0D8080808080808080808080EC
:10229000808080808080808080808080067D7D2D11
:1022A0008C80808080808080808080808080808022
:1022B0008080808080808080787D7D998080808013
:1022C000808080808080808080808080808080800E
:1022D00080808080787D7DAB949494948580859473
:1022E00094A5161616138A80808080808080808056
:1022F000787D7D7D7D7D7D7D280F267D7D7D7D7D2D
:102300007D7DFB8080808080808080802E7D7D7DB3
:102310007D7D7D7D7D7D7D7D79777729F5F5B98022
:10232000808080808080808080F6FBFBFB267D7D26
:102330007D1BFBFBA98080808080808080808080E6
:10234000808080808080808080808080808080808D
:10235000808080808080808080808080808080807D
:10236000808080808080808080808080808080806D
:10237000808080808080808080808080808080805D
:10238000808080808080808080808080808080804D
:10239000808080808080808080808080808080803D
:1023A000808080808080808080808080808080802D
:1023B000808080808080808080808080808080801D
:1023C000808080808080808080808080808080800D
:1023D00080808080808080808080808080808080FD
:1023E00080808080808080808080808080808080ED
:1023F00080808080808080808080808080808080DD
:1024000080808080808080808080808080808080CC
:1024100080808080808080808080808080808080BC
:1024200080808080808080808080808080808080AC
:10243000808080808080808080808080808080809C
:102440008080808080808080A67EED8080808080FB
:10245000808080808080808080808080808080807C
:1024600080808080D77CD2808080808080808080C7
:10247000808080808080808080808080808080805C
:1024800007718080808080808080808080808080D4
:102490008080808080808080808080AD7416808085
:1024A000808080808080808080808080808080802C
:1024B00080808080808080D47EBF8080808080808B
:1024C000808080808080808080808080808080800C
:1024D0008080804A5F8B8080808080808080808048
:1024E0008080808080808080808080808080A07ECE
:1024F0005880808080808080808080808080808004
:1025000080808080808080808080DF7E43808080AB
:1025100080808080808080808080808080808080BB
:102520008080808080800C7ECD80808080808080D4
:10253000808080808080808080808080808080809B
:1025400080B96D4D88808080808080808080808090
:1025500080808080808080808080808080FC7F255B
:10256000808080808080808080808080808080806B
:102570008080808080808080802B7ED18080808061
:10258000808080808080808080808080808080804B
:102590008080808098685780808080808080808064
:1025A000808080808080808080808080808080802B
:1025B000F87E1F8080808080808080808080808006
:1025C000808080808080808080808080177E0E80E8
:1025D00080808080808080808080808080808080FB
:1025E0008080808080808080647EC28080808080C7
:1025F00080808080808080808080808080808080DB
:10260000808080BD7B7EC280808080808080808052
:102610008080808080808080808080808080800D2D
:102620007E4D8380808080808080808080808080DC
:10263000808080808080808080808A577EF9808042
:10264000808080808080808080808080808080808A
:102650008080808080808546308A808080808080F5
:10266000808080808080808080808080808080806A
:10267000808080808080808080808080808080805A
:10268000808080808080808080808080808080804A
:10269000808080808080808080808080808080803A
:1026A000808080808080808080808080808080802A
:1026B000808080808080808080808080808080801A
:1026C000808080808080808080808080808080800A
:1026D00080808080808080808080808080808080FA
:1026E00080808080808080808080808080808080EA
:1026F00080808080808080808080808080808080DA
:1027000080808080808080808080808080808080C9
:1027100080808080808080808080808080808080B9
:1027200080808080808080808080808080808080A9
:102730008080808080808080808080808080808099
:102740008080808080808080808080808080808089
:10275000808080808B167D4A9F80808080808080F2
:102760008080808080808080808080808080808069
:10277000A57B7B7DEB8080808080808080808080D6
:10278000808080808080808080808095457B7B7D7C
:10279000EB808080808080808080808080808080CE
:1027A000808080808080EE3E7B7B7B7D29EDBE80BB
:1027B0008080808080808080808080808080808019
:1027C00080807D7B7B7B7B7D7B7B5CB3808080801E
:1027D00080808080808080808080808080367F7D47
:1027E0007D7D7D6A5E7D7D7D808080808080808033
:1027F0008080808080808080BF5D7D7B7B7B13CDEF
:10280000BE007B7BE98080808080808080808080AB
:10281000808080A0677B7D7B5C098A80809F667B4F
:1028200073F185808080808080808080808080A51A
:102830007B7B7D3C948080808080ED7B7D7BA38052
:102840008080808080808080808080A57B7B499E86
:102850008080808080809F487D7BA3808080808076
:1028600080808080808080A57D7D80808080808049
:102870008080A04A7F7D24808080808080808080CE
:102880008080800C7B7B8080808080808080ED7B5E
:102890007D7BA38080808080808080808080805944
:1028A0007B7B80808080808095BF677B7D669E80FB
:1028B0008080808080808080808080597B7B808049
:1028C00080808080107B7B7B5DBD8080808080806D
:1028D00080808080808080597B7B80808080803673
:1028E0005D7B7B7B34808080808080808080808066
:1028F0008080805A7D7DC9C9647D7D7F7D7D7D7DA1
:10290000808080808080808080808080808080F156
:102910007B7B7D7B7B7B7B7D7B7B7B138080808057
:1029200080808080808080808080809F667B7D7BAF
:102930007B7B7B7D663DA38A8080808080808080D9
:102940008080808080808080BE0E7D7B7B7B7B7DD5
:10295000EB8080808080808080808080808080800C
:10296000808080808080C82E7B2DC7C89E8080801C
:102970008080808080808080808080808080808057
:102980008080808080808080808080808080808047
:102990008080808080808080808080808080808037
:1029A0008080808080808080808080808080808027
:1029B0008080808080808080808080808080808017
:1029C0008080808080808080808080808080808007
:1029D00080808080808080808080808080808080F7
:1029E0008080808080808080232D302B200000001C
:1029F000686C4C00656667454647000030313233ED
:102A000034353637383941424344454600000000EA
:102A10003031323334353637383961626364656654
:102A200000000000AA1E0000C01E0000801E000062
:102A3000801E0000801E0000801E0000C01E0000DE
:102A4000801E0000801E0000801E0000801E00000E
:102A500000200000FE1E0000AA1F0000801E0000D3
:102A6000801E000030200000801E0000FE1E0000BE
:102A7000801E0000801E0000B21F0000DA561020E9
:102A80008058102064581020000000000000000052
:102A90007E5B1020B25B1020625710203C58102043
:102AA000D4581020865910200000000000000000BB
:102AB0000000000000000000000000000000000016
:102AC00000000000000000003E5A102012561020A6
:102AD00000000000000000000000000000000000F6
:102AE0007C6D1020E26D1020E26D10208E6D1020A4
:102AF000E26D1020E26D1020E26D1020A06D10201C
:102B0000E26D1020E26D1020E26D1020B26D1020F9
:102B1000E26D1020E26D1020E26D1020E26D1020B9
:102B2000C46D1020C46D1020C46D1020C46D102021
:102B3000C46D1020C46D1020C46D1020C46D102011
:102B4000C46D1020C46D1020C46D1020C46D102001
:102B5000C46D1020C46D1020C46D1020C46D1020F1
:102B6000446E10207E711020627110200000000061
:102B7000000000000000000000000000286F10208E
:102B8000000000000A7110203671102000000000C3
:102B90000000000000000000000000000000000035
:102BA000000000000000000000000000D2711020B2
:102BB0000000000000000000000000000000000015
:102BC00000000000EE7110205E721020A472102030
:102BD0000A731020807310209A731020AE73102097
:102BE000C8731020DC7310203E741020A0741020D5
:102BF0000075102020751020667510209475102027
:102C0000B2751020D2751020D2791020000000007B
:102C100000000000000000000000000000000000B4
:102C2000000000002C7B102000000000EE7B102034
:102C30003E7C10200000000000000000BE7C102040
:102C40008E7C10203A781020D877102000000000E9
:102C5000000000000000000000000000E67C1020E2
:102C6000827D10201E7E1020927E10200100000028
:102C700020000000001BB70000366E0101000000BC
:102C80001F000000030000003F00000001000000E2
:102C90002000000000366E01006CDC020300000022
:102CA0001F000000020000003F00000001000000C3
:102CB00010000000808D5B00001BB70000000000CA
:102CC0001F000000030000003F00000001000000A2
:102CD00010000000001BB70000366E01010000006C
:102CE0001F000000020000003F0000000100000083
:102CF0001000000000366E01006CDC0203000000D2
:102D00001F000000020000001F0000000100000082
:102D100008000000808D5B00001BB7000000000071
:102D20001F000000030000001F0000000100000061
:102D300008000000001BB70000366E010100000013
:102D40001F000000020000001F0000000100000042
:102D50000800000000366E01006CDC020300000079
:102D60001F000000020000000F0000000100000032
:102D700004000000808D5B00001BB7000000000015
:102D80001F000000030000000F0000000100000011
:102D900004000000001BB70000366E0101000000B7
:102DA0001F000000020000000F00000001000000F2
:102DB0000400000000366E01006CDC02030000001D
:102DC0001F000000020000000700000001000000DA
:102DD00002000000808D5B00001BB70000000000B7
:102DE0001F000000020000000F00000001000000B2
:102DF00002000000001BB70000366E010100000059
:102E00001F000000010000000F0000000100000092
:102E10000200000000366E01006CDC0203000000BE
:102E20001F00000001000000070000000200000079
:102E300001000000808D5B00001BB7000000000057
:102E40001F00000001000000070000000200000059
:102E500001000000001BB70000366E0101000000F9
:102E60001F0000000100000003000000020000003D
:102E70000100000000366E01006CDC02030000005F
:102E80001F00000003000000FFFFFFFF0400000020
:102E900001000000808D5B00001BB70000000000F7
:102EA0001F000000030000000000000004000000FC
:102EB00001000000001BB70000366E010100000099
:102EC0001F00000003000000FFFFFFFF04000000E0
:102ED0000100000000366E01006CDC0203000000FF
:102EE0001F00000002000000FFFFFFFF06000000BF
:102EF00001000000808D5B00AAC2A200000000005B
:102F00002300000001000000020000000600000095
:102F100001000000AAC2A200001BB70000000000D0
:102F20001700000003000000FFFFFFFF0600000085
:102F300001000000001BB7000024F40001000000A5
:102F40002F00000003000000FFFFFFFF060000004D
:102F5000010000000024F40080A81201010000001C
:102F60001700000002000000FFFFFFFF0600000046
:102F70000100000080A812015585450102000000F3
:102F80002300000002000000FFFFFFFF0800000018
:102F900001000000808D5B00001BB70000000000F6
:102FA0001F00000003000000FFFFFFFF08000000FB
:102FB00001000000001BB70000366E010100000098
:102FC0001F00000002000000FFFFFFFF08000000DC
:102FD0000100000000366E01006CDC0203000000FE
:102FE0001F00000001000000FFFFFFFF0A000000BB
:102FF00001000000808D5B00007C9200000000005A
:103000002700000003000000FFFFFFFF0A00000090
:1030100001000000007C9200001BB70000000000CF
:103020001300000002000000FFFFFFFF0A00000085
:1030300001000000001BB70000F82401010000009F
:103040002700000002000000FFFFFFFF0A00000051
:103050000100000000F8240100366E0101000000AC
:103060001300000001000000FFFFFFFF0A00000046
:103070000100000000366E0100F04902030000006C
:103080002700000001000000FFFFFFFF0C00000010
:1030900001000000808D5B0000127A00000000003B
:1030A0002F00000003000000FFFFFFFF0C000000E6
:1030B0000100000000127A00001BB70000000000B1
:1030C0001700000002000000FFFFFFFF0C000000DF
:1030D00001000000001BB7000024F4000100000004
:1030E0002F00000002000000FFFFFFFF0C000000A7
:1030F000010000000024F40000366E010100000011
:103100001700000001000000FFFFFFFF0C0000009F
:103110000100000000366E0180C3C90103000000F9
:103120002F00000001000000FFFFFFFF0C00000067
:103130000100000080C3C9010048E801030000004D
:103140002F00000001000000FFFFFFFF0E00000045
:1031500001000000808D5B00B6A168000000000047
:103160003700000003000000FFFFFFFF0E0000001B
:1031700001000000B7A16800001BB70000000000BC
:103180001B00000002000000FFFFFFFF0E00000018
:1031900001000000001BB7006D43D10001000000DA
:1031A0003700000002000000FFFFFFFF0E000000DC
:1031B000010000006E43D10000366E0101000000E6
:1031C0001B00000001000000FFFFFFFF0E000000D9
:1031D0000100000000366E01DB86A2010300000042
:1031E0003700000001000000FFFFFFFF100000009B
:1031F00001000000808D5B00001BB7000000000094
:103200001F00000002000000FFFFFFFF1000000091
:1032100001000000001BB70000366E010100000035
:103220001F00000001000000FFFFFFFF1200000070
:1032300001000000808D5B00AAC2A2000000000017
:103240002300000002000000FFFFFFFF120000004B
:1032500001000000ABC2A200001BB700000000008C
:103260001100000001000000FFFFFFFF120000003E
:1032700001000000001BB70055854501010000005A
:103280002300000001000000FFFFFFFF140000000A
:1032900001000000808D5B00007C920000000000B7
:1032A0002700000002000000FFFFFFFF14000000E5
:1032B00001000000007C9200001BB700000000002D
:1032C0001300000001000000FFFFFFFF14000000DA
:1032D00001000000001BB70000F8240101000000FD
:1032E0002700000001000000FFFFFFFF16000000A4
:1032F00001000000808D5B00E82A850000000000CE
:103300002B00000002000000FFFFFFFF160000007E
:1033100001000000E92A8500001BB7000000000042
:103320001500000001000000FFFFFFFF1600000075
:1033300001000000001BB700D1550A010100000088
:103340002B00000001000000FFFFFFFF180000003D
:1033500001000000808D5B0000127A000000000078
:103360002F00000002000000FFFFFFFF1800000018
:103370000100000000127A00001BB70000000000EE
:103380001700000001000000FFFFFFFF1800000011
:1033900001000000001BB7000024F4000100000041
:1033A0002F00000001000000FFFFFFFF1A000000D7
:1033B00001000000808D5B0027AE7000000000005F
:1033C0003300000002000000FFFFFFFF1A000000B2
:1033D0000100000028AE7000001BB70000000000D4
:1033E0001900000001000000FFFFFFFF1A000000AD
:1033F00001000000001BB7006658E100010000005A
:103400003300000001000000FFFFFFFF1C00000070
:1034100001000000808D5B00B6A168000000000084
:103420003700000002000000FFFFFFFF1C0000004B
:1034300001000000B7A16800001BB70000000000F9
:103440001B00000001000000FFFFFFFF1C00000048
:1034500001000000001BB7006D43D1000100000017
:103460003700000001000000FFFFFFFF1E0000000A
:1034700001000000808D5B0000A8610000000000DA
:103480003B00000002000000FFFFFFFF1E000000E5
:103490000100000000A86100001BB7000000000050
:1034A0001D00000001000000FFFFFFFF1E000000E4
:1034B00001000000001BB7000050C3000100000025
:1034C0003B00000001000000FFFFFFFF20000000A4
:1034D00001000000808D5B00001BB70000000000B1
:1034E0001F00000001000000FFFFFFFFB681102059
:1034F0005A821020328610204C44307265640000DD
:103500004C4430677265656E000000004C443062C8
:103510006C75650000000000FA88102030891020CA
:103520007C891020BE891020008A10205A8F10201C
:10353000D88F1020F08F10200C9010205A9010205F
:103540003E90102076901020AC9010209A9210207F
:10355000609110207891102094911020E291102019
:10356000C6911020FE91102034921020848C1020DF
:10357000448C1020CA8C1020F48C1020208D102038
:10358000668D1020A68D1020E68D10202C8E102028
:103590006C8E1020CE8E1020188F10201E911020BF
:1035A000A6921020C6921020C69810206696102071
:1035B00042951020A8961020FE9610201E971020ED
:1035C0001E9410203E9410205E9410209894102099
:1035D000D09410200A95102072951020BC951020D0
:1035E000EC95102036961020F035102000000000D9
:1035F0006C6962676C6F737300000000000000006C
:10360000100000001003000008000000100000007F
:10361000080000000A00000007020100147F1020CB
:10362000987F10201480102088801020AA871020F6
:0C363000D8871020E29D1020029E102080
:103680005D71A2C68008232EA4FA232CB4FA232A43
:10369000C4FA232604FE232404FE232204FE35A8B4
:1036A000832744FE8A070327C4FBBA979C4303275A
:1036B000C4FE635FF700832744FE8A070327C4FB29
:1036C000BA979C432326F4FE832744FE2324F4FE6A
:1036D000832744FE85072322F4FE032744FE832725
:1036E00044FBE36FF7FA8327C4FE634AF00223200A
:1036F00004FE29A8032784FB832704FEBA972380AE
:103700000700832704FE85072320F4FE032704FE19
:10371000832744FBE360F7FE832784FECDA0232E9E
:1037200004FC8327C4FE232CF4FC19A8832784FD02
:103730008583232CF4FC8327C4FD8507232EF4FC0A
:10374000032784FD9307F007E3E2E7FE8327C4FD28
:1037500081CB8327C4FDFD170547B317F70011A0E0
:1037600081472328F4FC232A04FC51A0832744FD2D
:103770008A070327C4FBBA979C4363DA0700032731
:1037800084FB832744FDBA9723800700A1A88327E1
:1037900044FD8A070327C4FBBA979843832704FD97
:1037A0003E978327C4FDB357F7402326F4FC032735
:1037B000C4FC9307F00763DCE700032784FB83273F
:1037C00044FDBA971307F0072380E70021A80327D9
:1037D00084FB832744FDBA970327C4FC62076187F3
:1037E0002380E700832744FD8507232AF4FC032771
:1037F00044FD832744FBE36BF7F6832784FE3E8575
:10380000364461618280317122DF8001232EA4F46D
:10381000232CB4F4232AC4F42328D4F42326E4F478
:103820002324F4F4832784F52326F4FE232404FEC2
:10383000CDAE8327C4F52322F4FE232004FE032704
:1038400044F585476317F708232E04FCA5A88327B2
:10385000C4FE138747002326E4FE9C43232CF4FC7C
:10386000232A04FCA9A0832744FE138717002322E0
:10387000E4FE838707002324F4F6832784FD63C7CF
:103880000700832784F6B307F04019A0832784F646
:10389000032704FEBA972320F4FE832784FD8607BE
:1038A000232CF4FC832744FD8507232AF4FC0327FB
:1038B00044FDFD47E3F9E7FA8327C4FD9387070238
:1038C000232EF4FC0327C4FD832704F5E361F7F8F6
:1038D0001DAE032744F589476318F70A232804FC23
:1038E00069A88327C4FE138747002326E4FE9C4370
:1038F0002326F4FC232404FCBDA0832744FE138765
:1039000017002322E4FE838707002328F4F6832789
:10391000C4FC63D70700832704F7B307F04019A05E
:10392000832704F72326F4F6032704FE8327C4F62F
:10393000BA972320F4FE0327C4FCB7070040F98F91
:1039400089CB8327C4F68607032704FEBA97232072
:10395000F4FE8327C4FC8A072326F4FC832784FC17
:1039600085072324F4FC032784FCBD47E3F7E7F82D
:10397000832704FDC1072328F4FC032704FD8327C4
:1039800004F5E360F7F641A4032744F59147631873
:10399000F70A232204FC69A88327C4FE1387470083
:1039A0002326E4FE9C432320F4FC232E04FABDA02E
:1039B000832744FE138717002322E4FE8387070032
:1039C000232CF4F6832704FCF18393F7F70FBD8BC8
:1039D000A30BF4F6834774F7A18B81CB834774F76D
:1039E00093E707FF232CF4FA29A0834774F7232CCD
:1039F000F4FA032784F7832784FBB307F70203272E
:103A000004FEBA972320F4FE832704FC92072320A8
:103A1000F4FC8327C4FB8507232EF4FA0327C4FB99
:103A20009D47E3F7E7F8832744FCA1072322F4FC32
:103A3000032744FC832704F5E360F7F6E9A2032794
:103A400044F5B1476316F708232A04FA9DA8832793
:103A5000C4FE138747002326E4FE9C432328F4FA80
:103A6000232604FAA9A0832744FE138717002322E4
:103A7000E4FE838707002320F4F8832704FBF18703
:103A8000232EF4F6032704F88327C4F7B307F702BD
:103A9000032704FEBA972320F4FE832704FB920732
:103AA0002328F4FA8327C4FA85072326F4FA032788
:103AB000C4FA9D47E3F9E7FA832744FBA107232AC9
:103AC000F4FA032744FB832704F5E362F7F825AAF9
:103AD000032744F5C1476316F708232404FA9DA879
:103AE0008327C4FE138747002326E4FE9C4323223A
:103AF000F4FA232004FAA9A0832744FE13871700B1
:103B00002322E4FE838707002324F4F8832744FA62
:103B1000E1872322F4F8032784F8832744F8B307C6
:103B2000F702032704FEBA972320F4FE832744FA02
:103B3000A2072322F4FA832704FA85072320F4FA44
:103B4000032704FA8D47E3F9E7FA832784FA9107FC
:103B50002324F4FA032784FA832704F5E362F7F8B1
:103B60005DA0032744F5D147631FF708232E04F80F
:103B700069A08327C4FE138747002326E4FE9C43E5
:103B8000232CF4F8232A04F8B9A8832744FE1387CA
:103B900017002322E4FE838707002328F4F88327F5
:103BA00084F963D70700832704F9B307F04019A00D
:103BB000832704F92326F4F8832784F9F1839D8B66
:103BC0000327C4F8B317F700032704FEBA9723208E
:103BD000F4FE832784F99207232CF4F8832744F911
:103BE0008507232AF4F8032744F99D47E3FFE7F804
:103BF0008327C4F9A107232EF4F80327C4F98327E8
:103C000004F5E368F7F6832784FE8A07032784F424
:103C1000BA97032704FE98C3832784FE85072324CD
:103C2000F4FE032784FE8327C4F4E364F7C0010095
:103C300001007A54296182804971232611162324B8
:103C40008116801A232EA4E8AE873287A30DF4E8EC
:103C5000BA87230DF4E8B737102003A60760B737FB
:103C6000102083A64760B737102003A7876093070B
:103C7000C4EEB70510209385854D0325C4E9613650
:103C8000B737102083A687601307C4EA9307C4EEF2
:103C90003686BA853E85ED32B737102003A6C76059
:103CA000B737102083A60761B737102003A74761F5
:103CB0009307C4EE1305C4EAB7251020938585D574
:103CC0009936B737102083A647611307C4EA9307D4
:103CD000C4EE3686BA853E856532AA872326F4FE71
:103CE0008347A4E90347B4E9BA860326C4FEBE8528
:103CF000B707102013850735292601008320C11638
:103D00000324811675618280411106C622C4000811
:103D10002945312E2945212EB70710201385473814
:103D2000C926294529262945192629450926B707DF
:103D300010201385073DF1240100B24022444101C7
:103D40008280011106CE22CC00102326A4FE23245B
:103D5000B4FE03A741A183A701A2BE853A85EF1057
:103D6000C062054723AEE1A00100F2406244056154
:103D70008280011106CE22CC26CA00102326A4FE82
:103D800023AE01A00325C4FEEF10406583A401A16A
:103D900083A701A13E85EF10A0442A86AE86216547
:103DA00081453307A6003A883338C800B387B60088
:103DB000B306F800B687BA853E862685EF10E04444
:103DC00003A741A183A701A2BE853A85EF10005940
:103DD000010083A7C1A1F5DF23AE01A00325C4FE26
:103DE000EF1000620100F2406244D244056182801B
:103DF000011106CE22CC0010B70710209385473E54
:103E0000B70710201385873EEF10C0612326A4FE5C
:103E1000B70710209385C73EB70710201385873E4C
:103E2000EF1040602324A4FEB70710209385473F7E
:103E3000B70710201385873EEF10C05E2322A4FE33
:103E40008327C4FE99C7832784FE81C7832744FE46
:103E500081EBB70710201385C73F6124854769AA06
:103E60000325C4FEEF104055032584FEEF10C05417
:103E7000032544FEEF1040540325C4FEEF104058C4
:103E8000032584FEEF10C057032544FEEF10405772
:103E9000EF100045AA873E85EF10A0412A8723A88E
:103EA000E1A083A701A181EBB70710201385C741CB
:103EB0000D2C894791A283A701A13E85EF10003DFB
:103EC0002A8723ACE1A083A781A181EBB70710204B
:103ED0001385874239248D4705A283A781A13E859A
:103EE000EF10A0411535B70710201385C744D52A18
:103EF000B737102083C787610546BE85B7271020D6
:103F0000138587DA153BB737102083C797610946B9
:103F1000BE85B72710201385870B393BB737102094
:103F200083C7A7610D46BE85B72710201385873C40
:103F30002133B737102083C7B7611146BE85B72735
:103F400010201385876DCD3983A701A13E85EF1021
:103F5000202F2A8723AAE1A083A741A181EBB707DD
:103F6000102013858746B52A914779A083A741A1E0
:103F70003E85EF10803883A701A13E85EF10A02E6B
:103F80002A8723A0E1A203A741A183A501A283A7B9
:103F900001A1BE86B7471020138627D43A85EF10BB
:103FA00000382320A4FE832704FE63DC0700B70744
:103FB0001020138507493522832704FEB307F040FC
:103FC00025A883A781A181453E85EF1020392A8746
:103FD000FD576319F700B70710201385C74B11224F
:103FE000994719A80325C4FE6933032584FE51337C
:103FF000032544FEBD3BFDB73E85F24062440561AA
:104000008280397132D436D63EDA2ED23AD842DCAA
:1040100046DE97D7EF5F83A767A68C4754102A86A2
:104020003E8506CE36C6C921F24021618280AA852E
:1040300017D5EF5F032585A410456F0070671C51ED
:10404000011122CC26CA4AC806CE4EC652C400452B
:10405000AA842E8999E3EF00304E8357C400A18BC8
:1040600099C31C48A5E7A2852685052225C17D5553
:10407000F2406244D2444249B249224A05618280F8
:104080001CC4050963D70700184C63CBE70263899A
:1040900045031C401387170018C02380B7001C4439
:1040A00083450900FD17E9FD1CC463D4070222867D
:1040B000A94526852D28FD57E30BF5FA29454DBF67
:1040C000228626852D20E31C35FD55B7FD59294A4A
:1040D000F9B71C401387170018C029472380E70051
:1040E000F1BFAA8517D5EF5F0325459989BF011157
:1040F00022CC26CA4AC806CE4EC62A89AE8432844D
:1041000009C51C5199E3EF0030431C4C1CC4835774
:10411000C400A18B99C31C4891EFA2854A85B520A4
:1041200011C9FD54F24062444249B2492685D24445
:10413000056182801C40184893F9F40F93F4F40F42
:104140003385E7405C486347F500A2854A85EF0068
:10415000F02A61F91C44FD171CC41C40138717008A
:1041600018C0238037015848930715006309F700EA
:104170008357C400858BDDD7A947E395F4FAA28560
:104180004A85EF00B02759DD69BF411122C426C21C
:1041900006C6AA8417D5EF5F0325458E2E8409C570
:1041A0001C5199E3EF0050398317C40013F78700BF
:1041B00021EB13F7070109EB254798C093E70704A4
:1041C0002316F4007D55A5A8918B8DC74C5889C93D
:1041D000930744046384F5002685B528232A040246
:1041E0008357C4002322040093F7B7FD2316F4007D
:1041F0001C481CC08357C40093E787002316F400B3
:104200001C4889EF8357C4001307002093F7072841
:104210006386E700A2852685EF00F03F8317C40080
:1042200013F7170015C35848232404003307E04050
:1042300018CC1848014501E713F7070841F3B240CD
:10424000224492444101828013F72700814611E302
:10425000544814C4F9BFC5C183A7C5FF011122CCBE
:1042600006CE1384C5FF63D307003E942AC63124CB
:1042700017D7EF5F1307C7831C43324581EB232217
:10428000040000C36244F2400561CDAA637DF400DE
:104290001040B306C4006396D7009443DC43B29643
:1042A00014C05CC0F9BF3E87DC4399C3E37DF4FED4
:1042B00014433306D700631F86001040B29614C320
:1042C0003306D700E390C7FC9043DC43B29614C397
:1042D0005CC34DBF6375C400B1471CC165B71040D6
:1042E000B306C4006396D7009443DC43B29614C06F
:1042F0005CC040C341BF828041114AC017C9EF5F13
:104300001309C97A8327090022C426C206C6AA84D3
:104310002E8491E78145EF00F05B2320A900A28560
:104320002685EF00305B7D59631A25017D54B2402C
:1043300022852244924402494101828013043500BF
:104340007198E30685FEB305A4402685EF009058DA
:10435000E31F25FDE1BF011126CA93843500F198C2
:104360004AC806CE22CC4EC652C4A104B1472A89FF
:1043700063F8F406B14463E7B4064A85FD2897C99B
:10438000EF5F9389E97283A709003E8425E8A6853B
:104390004A859D37FD572A84631FF50C03A4090045
:1043A000A287D5EB79C0032A040081454A85229A69
:1043B000EF005052631BAA0A1C404A859D8CA685BB
:1043C000253FFD576303F50A1C40A6971CC083A731
:1043D0000900D84341E797C7EF5F23AB076C81A083
:1043E000E3DB04F8B1472320F9000145F2406244C1
:1043F000D2444249B249224A056182801440858EE6
:1044000063C806042D47637DD70204C033079400B8
:104410006396870223A0E9005C4014C35CC34A850D
:10442000B1281305B4009307440061993307F540A0
:10443000E30EF5FA3A94898F1CC04DBFD8C3E9BF8B
:1044400058406395870023A0E900D1BFD8C3C1BFFE
:10445000A287404025BF3E84DC43A1B73E87DC43B2
:10446000E39E87FE232207005DBFB1472320F900AA
:104470004A8529209DBF04C15DB7828082801C4689
:10448000FD171CC663D90700184E63C5E700A9478E
:104490006393F500A9B91C422E851387170018C233
:1044A0002380B7008280011122CC26CA4AC84EC69A
:1044B00052C406CE2A89AE893284B304D6007D5A0E
:1044C00063149400014509A8834504004E864A857B
:1044D0007D370504E31645FFF2406244D244424969
:1044E000B249224A05618280357122CD26CB4AC964
:1044F0004EC706CF52C556C35AC1DEDEE2DCE6DA4D
:10450000AA892E89B284368409C51C5199E3EF002B
:10451000B0028357C900A18BF1C783270901F9C3F2
:1045200093070002A304F1029307000302D22305BC
:10453000F10222C6930B500297EAFFFF938A0A4BBF
:10454000054C294B26848347040099C3639E770B4F
:10455000B30C9440630D9400E6862686CA854E858A
:104560009937FD576303F51C9257E6973ED2834770
:104570000400638C071AFD579304140002C802CE8E
:104580003ECA02CCA309010482D483C504001546A7
:104590005685EF00F022C2471384140025E913F773
:1045A000070109C713070002A309E10413F78700F5
:1045B00009C71307B002A309E10483C60400130767
:1045C000A002638DE604F247268481462546034710
:1045D000040093051400130707FD6377E608B9C6C6
:1045E0003ECEA9A0CA854E854D361DD97D55FA40CF
:1045F0006A44DA444A49BA492A4A9A4A0A4BF65B5B
:10460000665CD65C0D618280050435BF330555417B
:104610003315AC00C98F3EC8A28485BF32479306CC
:104620004700184336C6634A07023ACE03470400E0
:104630009307E002631EF704034714009307A002E8
:10464000631AF702B2470904138747009C433AC62E
:1046500063D30700FD573ECA25A83307E04093E720
:1046600027003ACE3EC8D9B7B38767032E84854664
:10467000BA97B1BF050402CA814681472546034760
:10468000040093051400130707FD6376E606E1F6C0
:10469000834504000D4617E5FFFF1305A535EF0020
:1046A000301211CD97E7FFFF9387C7341D8DC247A6
:1046B000130700043317A700D98F05043EC88345AC
:1046C0000400194617E5FFFF130505339304140092
:1046D0002304B102EF00D00E2DC19307000095E72F
:1046E0004247B2471377071009CF91073EC692574A
:1046F000D2973ED281BDB38767032E848546BA9791
:10470000BDBF9D07E19BA107D5B7780097060000C4
:104710009386A6D94A860C084E8597000000E700CC
:104720000000FD572A8AE314F5FC8357C90093F76C
:104730000704E39D07EA12555DBD78009706000067
:104740009386A6D64A860C084E85112AD9BF797160
:1047500056CA9C49BA8A984522D44AD04ECE52CCE9
:1047600006D626D25AC85EC6AA892E843289368ACF
:1047700063D3E700BA872320F9000347340401C755
:1047800085072320F9001C4093F7070291C7832770
:10479000090089072320F9000440998891E8130B48
:1047A0009401FD5B5C4403270900998F63CCF404FA
:1047B00083473404B336F0001C4093F70702A5EB9F
:1047C00013063404D2854E85829AFD576303F5049F
:1047D0001C4011478144998B6399E7004444832727
:1047E00009009D8C63D3040081441C441848635421
:1047F000F700998FBE94014969047D5B6398240595
:10480000014509A885465A86D2854E85829A631E3F
:1048100075017D55B250225492540259F249624AB0
:10482000D24A424BB24B456182808504A5BF330713
:10483000D40013060003A301C7040347540493875D
:104840001600A2978906A381E7049DBF85462286AC
:10485000D2854E85829AE30E65FB050945B77971CD
:1048600022D426D24AD04ECE06D652CC56CA5AC8E8
:1048700003C8850193078007AA842E843289B689EC
:1048800063E20703930720069386350463E1070379
:10489000630E081A9307800517E6FFFF13064616F6
:1048A0006301F814930A24042301040515A893074F
:1048B000D8F993F7F70F5546E366F6FE17E6FFFFC4
:1048C000130686168A07B2979C43B29782871C43C9
:1048D000938A2504938647009C4314C32381F504DF
:1048E000854741AA9C41084313F6070893054500F4
:1048F0000DC21C410CC363D807001307D002B307D5
:10490000F040A301E40417E6FFFF1306660F2948F1
:1049100089A013F607041C410CC371DEC207C187CE
:10492000D9BF8C41104313F505081C42110611E54F
:1049300093F5050499C1C207C18310C31307F0069C
:1049400017E6FFFF1306C60B631CE80C2148A30102
:104950000404584018C4634807000C405D8FB68AB1
:10496000ED990CC019CFB68A33F70703FD1A3297B9
:10497000034707002380EA003E87B3D70703E375A8
:1049800007FFA147631EF8001C40858B91CB584060
:104990001C4863C7E70093070003A38FFAFEFD1AC4
:1049A000B386564114C84E87CA867000A2852685F4
:1049B000793B7D5A6313450D7D55B2502254925474
:1049C0000259F249624AD24A424B456182809C4177
:1049D00093E707029CC11308800717E6FFFF130641
:1049E0006603A30204050C40084313F805081C41A4
:1049F00011056318080013F8050463040800C207D2
:104A0000C18308C313F7150001C793E505020CC065
:104A100099C341482DBF18401377F7FD18C0D5BF83
:104A2000294835B790411C43CC49137806081385B3
:104A300047006306080008C39C438CC301A808C351
:104A4000137606049C4375DA2390B70023280400EC
:104A5000B68A91BF1C43D04181459386470014C359
:104A600083AA07005685A92B01C53305554148C0C7
:104A70005C401CC8A30104043DB714485686CA858F
:104A800026858299E30A45F31C40898B8DE7B2475E
:104A90004844E354F5F23E850DB785465686CA85EF
:104AA00026858299E30A65F1050A5C443247998FAD
:104AB000E345FAFEE9BF014A930A94017D5BF5B72D
:104AC0008397C500011122CC26CA06CE4AC84EC61D
:104AD00013F78700AA842E8479E7D8416345E00064
:104AE000B841635BE00A585445CB03A90400939690
:104AF000370123A004000C5063DE0606704883577C
:104B0000C400918B99C75C401D8E5C5899C33C4092
:104B10001D8E5C540C508146268582977D578357A5
:104B2000C400631DE500944075476369D7063707E5
:104B3000402005073357D700058B2DC31848232283
:104B4000040018C01397370163580700FD5763141A
:104B5000F5009C4091E368C84C5823A024018DCDFA
:104B6000930744046385F5002685EFF0CFEE232AF2
:104B700004021DA00146854626850297FD572A8618
:104B8000E31FF5F69C40A5DF75476385E7005947AD
:104B90006394E70423A024010145B1A093E707042F
:104BA000C207C18735A883A90501E38709FE03A9C8
:104BB00005008D8B23A0350133093941014791E36D
:104BC000D84918C4E35A20FD1C540C50CA864E869E
:104BD000268582976340A0028317C40093E70704E9
:104BE0002316F4007D55F2406244D2444249B24952
:104BF00005618280AA993309A940E9B79C4985CB10
:104C0000011122CC06CE2A8411C51C5181E72EC683
:104C10002522B2458397C50091C722856244F240A0
:104C2000056179BDF240624401450561828001451C
:104C30008280411122C406C62A842316B500231798
:104C4000C50023200500232205002324050023227C
:104C5000050623280500232A0500232C05002146EC
:104C600081451305C505C929970700009387E729E2
:104C70005CD0970700009387472C1CD4970700004F
:104C8000938787305CD49707000093874733B240FF
:104C900000D01CD822444101828017B6EF5F130672
:104CA000263B970500009385A5F517B5EF5F130523
:104CB00065354DA04C41411122C406C697C7EF5F30
:104CC000938787E02A846383F5000D3F0C4497C7E0
:104CD000EF5F9387E7E56384F500228505374C4451
:104CE0009387C1916387F50022852244B240410138
:104CF00031B7B24022444101828041119707000040
:104D00009387E7F90146914517C5EF5F1305C5DBAA
:104D100006C617C7EF5F232FF7D8213F0546A545E5
:104D200017C5EF5F1305C5E02937B2400946C945ED
:104D30001385C1914101F5BD1C5181EF970700001A
:104D4000938787F71CD197C7EF5F83A7A7D691E317
:104D50006DB78280797122D44AD04ECE52CC5AC8D7
:104D60005EC606D626D256CAAA892E8A3284014940
:104D7000054BFD5B0444832A4400FD1A63D00A02FC
:104D800000406DF8B25022549254F249624AD24A1D
:104D9000424BB24B4A8502594561828083D7C40099
:104DA000637BFB008397E40063877701A6854E85CC
:104DB000029A3369A90093848406C1B75971A2D4B9
:104DC0002E848395E500A6D2CAD086D6B2843689D1
:104DD00063D305028357C40093F707088DEB1307CD
:104DE0000040B65026542320F90098C00659965426
:104DF0000145656182803000092CE34D05FC324796
:104E0000BD67F98F7977BA9793B71700C9BF814704
:104E100013070004F9B783D7C500797122D406D6E9
:104E200026D24AD04ECE898B2E8491CF930774041C
:104E30001CC01CC885475CC8B25022549254025909
:104E4000F2494561828074003000AA84853FA249FE
:104E50002A892685CE85EFF00FD001ED8317C40097
:104E600013F7072071FBF19B93E727002316F4004B
:104E700075BF8357C40008C008C893E70708231606
:104E8000F400B247232A340189CF8315E400268534
:104E9000752201C98357C400F19B93E717002316BD
:104EA000F4008357C40033E527012316A40069B733
:104EB000011122CC06CE2A8401C91C5191E732C6C9
:104EC0002EC49D3D3246A2451C46FD171CC663D02C
:104ED0000702184E63C7E70093F7F50F2947639859
:104EE000E70022856244F24005616FF04FA01C424A
:104EF00013F5F50F1387170018C22380B700F2408F
:104F0000624405618280411122C42E848395E500AC
:104F100006C67922634905007C48AA977CC8B2403E
:104F20002244410182808357C4007D777D17F98F29
:104F30002316F400EDB783D7C500011122CC26CA91
:104F40004AC84EC606CE93F70710AA842E8432892B
:104F5000B68991C78395E50089460146012A8357A2
:104F6000C4007D777D17F98F8315E4002316F400C4
:104F70006244F240CE864A86B24942492685D244EE
:104F8000056149A2411122C42E848395E50006C61D
:104F9000F1287D578357C400631BE5007D777D179B
:104FA000F98F2316F400B240224441018280056744
:104FB000D98F2316F40068C8FDB78395E50031A8A2
:104FC00093F5F50F2A966314C50001458280834747
:104FD0000500E38DB7FE0505FDB7411122C42A8403
:104FE0002E8597C7EF5F23A907AC06C6EF40B063D5
:104FF000FD576318F50097C7EF5F83A7E7AB91C331
:105000001CC0B240224441018280411122C42A8442
:105010002E85B28597C7EF5F23A007AA06C6EF408B
:10502000B062FD576318F50097C7EF5F83A7C7A865
:1050300091C31CC0B240224441018280411122C46C
:105040002A842E8597C7EF5F23A807A606C6EF40E0
:105050001062FD576318F50097C7EF5F83A7C7A5D8
:1050600091C31CC0B240224441018280411122C43C
:105070002A842E85B285368697C7EF5F23AE07A2B6
:1050800006C6EF40D060FD576318F50097C7EF5F85
:1050900083A787A291C31CC0B240224441018280F1
:1050A000411122C42A842E85B285368697C7EF5FC8
:1050B00023A407A006C6EF403060FD576318F50033
:1050C00097C7EF5F83A7479F91C31CC0B24022449C
:1050D00041018280411122C42A842E8597C7EF5F47
:1050E00023AC079C06C6EF40D05FFD576318F50060
:1050F00097C7EF5F83A7479C91C31CC0B24022446F
:1051000041018280411122C42A842E85B2853686CF
:1051100097C7EF5F23A2079A06C6EF403063FD579B
:105120006318F50097C7EF5F83A7079991C31CC069
:10513000B2402244410182803D432A876373C30207
:105140009377F700BDEFADE5937606FF3D8ABA96FB
:105150000CC34CC30CC74CC74107E36BD7FE11E22D
:105160008280B306C3408A06970200009696678045
:10517000A6002307B700A306B7002306B700A305C0
:10518000B7002305B700A304B7002304B700A303A7
:10519000B7002303B700A302B7002302B700A3019F
:1051A000B7002301B700A300B7002300B700828037
:1051B00093F5F50F93968500D58D93960501D58DC2
:1051C00061B7939627009702000096968682E78043
:1051D00086FA9680C1171D8F3E96E374C3F8A5B773
:1051E000011106CE22CC00102326A4FE8327C4FE84
:1051F0009C439C470325C4FE82972A87AE873A8545
:10520000BE85F240624405618280011106CE22CC47
:1052100000102326A4FE2320B4FE2322C4FE8327ED
:10522000C4FE9C43DC47832504FE032644FE03257D
:10523000C4FE8297AA873E85F2406244056182805F
:10524000011106CE22CC00102326A4FE8327C4FE23
:105250009C439C4B0325C4FE8297AA873E85F2405F
:10526000624405618280011106CE22CC0010232603
:10527000A4FE8327C4FE9C43DC4B0325C4FE829717
:10528000AA873E85F240624405618280011106CE04
:1052900022CC00102326A4FE8327C4FE9C43DC57A7
:1052A0000325C4FE8297AA873E85F24062440561C9
:1052B0008280011122CE00102326A4FE8327C4FE83
:1052C00099EBB71700800327C4FE0A079387C7A787
:1052D000BA979C4311A081473E8572440561828044
:1052E000011122CE0010F32740F12326F4FE83277C
:1052F000C4FE3E85724405618280011106CE22CC37
:1053000000102326A4FE8327C4FE9C439C43032550
:10531000C4FE82970100F24062440561828001115F
:1053200006CE22CC00102326A4FE2324B4FE232282
:10533000C4FE2320D4FE8327C4FE9C43DC4F832677
:1053400004FE032644FE832584FE0325C4FE8297C3
:10535000AA873E85F240624405618280011106CE33
:1053600022CC00102326A4FE2324B4FE8327C4FEEF
:105370009C43DC53832584FE0325C4FE8297AA87C1
:105380003E85F240624405618280011106CE22CC46
:1053900000102326A4FE2324B4FE8327C4FE9C43CE
:1053A0009C57832584FE0325C4FE8297AA873E85E9
:1053B000F240624405618280011106CE22CC0010C9
:1053C0002326A4FE8327C4FE9C43DC430325C4FE9E
:1053D00082970100F240624405618280011106CE8D
:1053E00022CC00102326A4FE8327C4FE9C439C47A6
:1053F0000325C4FE82970100F24062440561828069
:10540000011106CE22CC00102326A4FE8327C4FE61
:105410009C43DC470325C4FE82970100F2406244AE
:1054200005618280757106C722C50009232EA4F686
:10543000232CB4F68327C4F781C7832784F799E325
:105440008147BDA0930744F88325C4F73E85EF400C
:105450007045930744F8832584F73E85EF40F03884
:10546000232604FE81A0B7070080138787058327C2
:10547000C4FE8A07BA979C432324F4FE832784FE44
:105480009C439C43130744F8BA85032584FE829706
:10549000AA8781C7832784FE21A88327C4FE8507A6
:1054A0002326F4FE0327C4FE8947E3DEE7FA81479B
:1054B0003E85BA402A4449618280011122CE001003
:1054C0002326A4FE0327C4FEB7170080938707A8EE
:1054D0006315F700B707000211A081473E857244AB
:1054E00005618280011122CE00102326A4FE03272D
:1054F000C4FEB7170080938707A86314F700894795
:1055000011A081473E85724405618280011122CE3F
:1055100000102326A4FE2324B4FE832784FE91E7F3
:10552000B70700809387870821A8032784FE854753
:105530006317F700B70700809387870811A081479A
:105540003E85724405618280011122CE001023261F
:10555000A4FE2324B4FE832784FE99E38D4709A883
:10556000032784FE85476314F7009D4711A08147F8
:105570003E857244056182805D7186C6A2C4CAC23E
:10558000CEC052DE56DC5ADA5ED862D666D48008C7
:10559000232EA4FA8327C4FB3E8505372326A4FCCB
:1055A0000327C4FCB167F117BA979C432324F4FC8A
:1055B0000327C4FCB167E117BA979C432322F4FC8C
:1055C0000327C4FCB167F117BA979C43032784FCF7
:1055D000E318F7FC832784FC3E8C814C93190C0064
:1055E0000149832744FC3E8A814A336B4901B3EB6E
:1055F00059015A87DE873A85BE85B640264416494A
:105600008649725AE25A525BC25B325CA25C6161AB
:105610008280797106D622D44AD24ED00018232E29
:10562000A4FC232CB4FC2328C4FC232AD4FC832709
:10563000C4FD2326F4FE8327C4FE3E85BD3D2324FE
:10564000A4FE832784FD8E073E87832784FE3E9732
:1056500091679107BA973E87FD571CC3832784FD46
:105660008E073E87832784FE3E979167BA973E87D1
:10567000832704FD1CC3832744FD13D907008149F8
:10568000832784FD8E073E87832784FE3E9791679C
:105690009107BA974A8798C381473E85B2502254F2
:1056A0001259825945618280011106CE22CC001028
:1056B000232604FEF32740F12326F4FE8327C4FEAD
:1056C0003E85C53E2324A4FE032584FEC136AA8759
:1056D0003E85F240624405618280397106DE22DC3B
:1056E00080002326A4FC0325C4FCED3B2324A4FE58
:1056F0008327C4FC2322F4FE832744FEDC43A9EF66
:10570000232604FE81A08325C4FE0325C4FCFD3BA3
:105710002320A4FE8325C4FE0325C4FC3535232E97
:10572000A4FC832704FE9C43DC4F8326C4FC014673
:105730008325C4FD032504FE82978327C4FE8507C5
:105740002326F4FE0327C4FE832784FEE34DF7FAE5
:10575000832744FE0547D8C30100F25062542161FB
:105760008280397106DE22DC80002326A4FC2324FB
:10577000B4FC2322C4FC2320D4FCFD572326F4FED2
:10578000EF10A0452320A4FE232404FE313F232E46
:10579000A4FC0325C4FCB933232CA4FC032704FE7A
:1057A00085476308F700832704FE81C78327C4FE6B
:1057B00049A0232204FE91A0832544FE0325C4FCB6
:1057C0006133232AA4FC832544FE0325C4FC3D3B0E
:1057D0002324A4FE0327C4FD832784FE6318F70057
:1057E000032784FC832744FD6300F702232404FE7F
:1057F000832744FE85072322F4FE032744FE8327E4
:1058000084FDE34BF7FA11A00100832784FE85C3D2
:10581000832784FE9C43DC4F832604FC032644FC40
:10582000832584FC032584FE82972326A4FE8327F8
:10583000C4FE3E85F250625421618280797122D685
:105840000018232EA4FC232CB4FC232AC4FC2328F8
:10585000D4FCFD572326F4FE8327C4FE3E85325434
:1058600045618280011106CE22CC00102326A4FEC1
:10587000EF10A036AA873E85F2406244056182801F
:10588000797106D622D40018232EA4FC232CB4FC54
:10589000FD572326F4FE093D2324A4FE832784FE1E
:1058A0009DC3032784FD854763EEE700832784FEBD
:1058B0009C43DC43832584FD032584FE82972326B5
:1058C000A4FE11A001008327C4FE3E85B2502254DD
:1058D00045618280397106DE22DC80002326A4FC2B
:1058E0002324B4FCFD572326F4FE832784FCC9C778
:1058F000232404FE553B2320A4FE0325C4FCDD36EF
:10590000232EA4FC232204FE91A0832544FE03251C
:10591000C4FC1D39232CA4FC832544FE0325C4FCB0
:10592000F5362324A4FE032704FE832784FE631890
:10593000F700032784FC832784FD6300F7022324F8
:1059400004FE832744FE85072322F4FE032744FE3A
:105950008327C4FDE34BF7FA11A00100832784FEDF
:1059600081CF832784FE9C43DC53832584FC03255D
:1059700084FE82972326A4FE8327C4FE3E85F25030
:10598000625421618280397106DE22DC8000232688
:10599000A4FC2324B4FCFD572326F4FE832784FCB7
:1059A000C1CB232404FE09332320A4FE0325C4FC19
:1059B000EFF05FB3232EA4FC232204FEA1A08325D5
:1059C00044FE0325C4FCEFF03FB8232CA4FC832540
:1059D00044FE0325C4FCEFF07FB32324A4FE032779
:1059E00004FE832784FE6318F700032784FC8327C3
:1059F00084FD6300F702232404FE832744FE850709
:105A00002322F4FE032744FE8327C4FDE349F7FA6B
:105A100011A00100832784FE81CF832784FE9C434D
:105A20009C57832584FC032584FE82972326A4FEAD
:105A30008327C4FE3E85F2506254216182807971D1
:105A400006D622D40018232EA4FC232CB4FC232A2F
:105A5000C4FCFD572326F4FE8327C4FD2324F4FE53
:105A60000325C4FDEFF07FA52322A4FE032784FDB8
:105A700091476301F70C032784FD914763C1E70E4B
:105A8000032784FD8D476306F706032784FD8D47B2
:105A900063C7E70C032784FD85476308F7000327E6
:105AA00084FD89476303F7025DA8832744FDD5CBB6
:105AB000032584FEEFF05FAC2A87AE87832644FD82
:105AC00098C2DCC2232604FE69A8832744FDC1CF07
:105AD000832744FD9C432320F4FE832704FE8A078A
:105AE0003E87832744FEBA9723A00700232604FE9F
:105AF0009DA8832744FDB5CB832744FD9C432320E9
:105B0000F4FE832704FE8A073E87832744FEBA9764
:105B10003E8785471CC30F008004832704FE8A0745
